{
  "_format": "hh-sol-artifact-1",
  "contractName": "NFT",
  "sourceName": "contracts/NFT.sol",
  "abi": [
    {
      "inputs": [
        {
          "internalType": "address",
          "name": "minter",
          "type": "address"
        },
        {
          "internalType": "address",
          "name": "burner",
          "type": "address"
        },
        {
          "internalType": "address",
          "name": "uri",
          "type": "address"
        },
        {
          "internalType": "address",
          "name": "admin",
          "type": "address"
        },
        {
          "internalType": "string",
          "name": "_baseTokenURI",
          "type": "string"
        }
      ],
      "stateMutability": "nonpayable",
      "type": "constructor"
    },
    {
      "anonymous": false,
      "inputs": [
        {
          "indexed": true,
          "internalType": "address",
          "name": "owner",
          "type": "address"
        },
        {
          "indexed": true,
          "internalType": "address",
          "name": "approved",
          "type": "address"
        },
        {
          "indexed": true,
          "internalType": "uint256",
          "name": "tokenId",
          "type": "uint256"
        }
      ],
      "name": "Approval",
      "type": "event"
    },
    {
      "anonymous": false,
      "inputs": [
        {
          "indexed": true,
          "internalType": "address",
          "name": "owner",
          "type": "address"
        },
        {
          "indexed": true,
          "internalType": "address",
          "name": "operator",
          "type": "address"
        },
        {
          "indexed": false,
          "internalType": "bool",
          "name": "approved",
          "type": "bool"
        }
      ],
      "name": "ApprovalForAll",
      "type": "event"
    },
    {
      "anonymous": false,
      "inputs": [
        {
          "indexed": true,
          "internalType": "address",
          "name": "delegator",
          "type": "address"
        },
        {
          "indexed": true,
          "internalType": "address",
          "name": "fromDelegate",
          "type": "address"
        },
        {
          "indexed": true,
          "internalType": "address",
          "name": "toDelegate",
          "type": "address"
        }
      ],
      "name": "DelegateChanged",
      "type": "event"
    },
    {
      "anonymous": false,
      "inputs": [
        {
          "indexed": true,
          "internalType": "address",
          "name": "delegate",
          "type": "address"
        },
        {
          "indexed": false,
          "internalType": "uint256",
          "name": "previousBalance",
          "type": "uint256"
        },
        {
          "indexed": false,
          "internalType": "uint256",
          "name": "newBalance",
          "type": "uint256"
        }
      ],
      "name": "DelegateVotesChanged",
      "type": "event"
    },
    {
      "anonymous": false,
      "inputs": [
        {
          "indexed": true,
          "internalType": "bytes32",
          "name": "role",
          "type": "bytes32"
        },
        {
          "indexed": true,
          "internalType": "bytes32",
          "name": "previousAdminRole",
          "type": "bytes32"
        },
        {
          "indexed": true,
          "internalType": "bytes32",
          "name": "newAdminRole",
          "type": "bytes32"
        }
      ],
      "name": "RoleAdminChanged",
      "type": "event"
    },
    {
      "anonymous": false,
      "inputs": [
        {
          "indexed": true,
          "internalType": "bytes32",
          "name": "role",
          "type": "bytes32"
        },
        {
          "indexed": true,
          "internalType": "address",
          "name": "account",
          "type": "address"
        },
        {
          "indexed": true,
          "internalType": "address",
          "name": "sender",
          "type": "address"
        }
      ],
      "name": "RoleGranted",
      "type": "event"
    },
    {
      "anonymous": false,
      "inputs": [
        {
          "indexed": true,
          "internalType": "bytes32",
          "name": "role",
          "type": "bytes32"
        },
        {
          "indexed": true,
          "internalType": "address",
          "name": "account",
          "type": "address"
        },
        {
          "indexed": true,
          "internalType": "address",
          "name": "sender",
          "type": "address"
        }
      ],
      "name": "RoleRevoked",
      "type": "event"
    },
    {
      "anonymous": false,
      "inputs": [
        {
          "indexed": true,
          "internalType": "address",
          "name": "from",
          "type": "address"
        },
        {
          "indexed": true,
          "internalType": "address",
          "name": "to",
          "type": "address"
        },
        {
          "indexed": true,
          "internalType": "uint256",
          "name": "tokenId",
          "type": "uint256"
        }
      ],
      "name": "Transfer",
      "type": "event"
    },
    {
      "inputs": [],
      "name": "ADMIN_ROLE",
      "outputs": [
        {
          "internalType": "bytes32",
          "name": "",
          "type": "bytes32"
        }
      ],
      "stateMutability": "view",
      "type": "function"
    },
    {
      "inputs": [],
      "name": "BURNER_ROLE",
      "outputs": [
        {
          "internalType": "bytes32",
          "name": "",
          "type": "bytes32"
        }
      ],
      "stateMutability": "view",
      "type": "function"
    },
    {
      "inputs": [],
      "name": "DEFAULT_ADMIN_ROLE",
      "outputs": [
        {
          "internalType": "bytes32",
          "name": "",
          "type": "bytes32"
        }
      ],
      "stateMutability": "view",
      "type": "function"
    },
    {
      "inputs": [],
      "name": "DOMAIN_SEPARATOR",
      "outputs": [
        {
          "internalType": "bytes32",
          "name": "",
          "type": "bytes32"
        }
      ],
      "stateMutability": "view",
      "type": "function"
    },
    {
      "inputs": [],
      "name": "MINTER_ROLE",
      "outputs": [
        {
          "internalType": "bytes32",
          "name": "",
          "type": "bytes32"
        }
      ],
      "stateMutability": "view",
      "type": "function"
    },
    {
      "inputs": [],
      "name": "URI_ROLE",
      "outputs": [
        {
          "internalType": "bytes32",
          "name": "",
          "type": "bytes32"
        }
      ],
      "stateMutability": "view",
      "type": "function"
    },
    {
      "inputs": [
        {
          "internalType": "string",
          "name": "_baseTokenUri",
          "type": "string"
        }
      ],
      "name": "_setTokenURI",
      "outputs": [],
      "stateMutability": "nonpayable",
      "type": "function"
    },
    {
      "inputs": [
        {
          "internalType": "address",
          "name": "to",
          "type": "address"
        },
        {
          "internalType": "uint256",
          "name": "tokenId",
          "type": "uint256"
        }
      ],
      "name": "approve",
      "outputs": [],
      "stateMutability": "nonpayable",
      "type": "function"
    },
    {
      "inputs": [
        {
          "internalType": "address",
          "name": "owner",
          "type": "address"
        }
      ],
      "name": "balanceOf",
      "outputs": [
        {
          "internalType": "uint256",
          "name": "",
          "type": "uint256"
        }
      ],
      "stateMutability": "view",
      "type": "function"
    },
    {
      "inputs": [
        {
          "internalType": "uint256",
          "name": "tokenId",
          "type": "uint256"
        }
      ],
      "name": "burn",
      "outputs": [],
      "stateMutability": "nonpayable",
      "type": "function"
    },
    {
      "inputs": [
        {
          "internalType": "address",
          "name": "delegatee",
          "type": "address"
        }
      ],
      "name": "delegate",
      "outputs": [],
      "stateMutability": "nonpayable",
      "type": "function"
    },
    {
      "inputs": [
        {
          "internalType": "address",
          "name": "delegatee",
          "type": "address"
        },
        {
          "internalType": "uint256",
          "name": "nonce",
          "type": "uint256"
        },
        {
          "internalType": "uint256",
          "name": "expiry",
          "type": "uint256"
        },
        {
          "internalType": "uint8",
          "name": "v",
          "type": "uint8"
        },
        {
          "internalType": "bytes32",
          "name": "r",
          "type": "bytes32"
        },
        {
          "internalType": "bytes32",
          "name": "s",
          "type": "bytes32"
        }
      ],
      "name": "delegateBySig",
      "outputs": [],
      "stateMutability": "nonpayable",
      "type": "function"
    },
    {
      "inputs": [
        {
          "internalType": "address",
          "name": "account",
          "type": "address"
        }
      ],
      "name": "delegates",
      "outputs": [
        {
          "internalType": "address",
          "name": "",
          "type": "address"
        }
      ],
      "stateMutability": "view",
      "type": "function"
    },
    {
      "inputs": [
        {
          "internalType": "uint256",
          "name": "tokenId",
          "type": "uint256"
        }
      ],
      "name": "getApproved",
      "outputs": [
        {
          "internalType": "address",
          "name": "",
          "type": "address"
        }
      ],
      "stateMutability": "view",
      "type": "function"
    },
    {
      "inputs": [
        {
          "internalType": "uint256",
          "name": "blockNumber",
          "type": "uint256"
        }
      ],
      "name": "getPastTotalSupply",
      "outputs": [
        {
          "internalType": "uint256",
          "name": "",
          "type": "uint256"
        }
      ],
      "stateMutability": "view",
      "type": "function"
    },
    {
      "inputs": [
        {
          "internalType": "address",
          "name": "account",
          "type": "address"
        },
        {
          "internalType": "uint256",
          "name": "blockNumber",
          "type": "uint256"
        }
      ],
      "name": "getPastVotes",
      "outputs": [
        {
          "internalType": "uint256",
          "name": "",
          "type": "uint256"
        }
      ],
      "stateMutability": "view",
      "type": "function"
    },
    {
      "inputs": [
        {
          "internalType": "bytes32",
          "name": "role",
          "type": "bytes32"
        }
      ],
      "name": "getRoleAdmin",
      "outputs": [
        {
          "internalType": "bytes32",
          "name": "",
          "type": "bytes32"
        }
      ],
      "stateMutability": "view",
      "type": "function"
    },
    {
      "inputs": [
        {
          "internalType": "address",
          "name": "account",
          "type": "address"
        }
      ],
      "name": "getVotes",
      "outputs": [
        {
          "internalType": "uint256",
          "name": "",
          "type": "uint256"
        }
      ],
      "stateMutability": "view",
      "type": "function"
    },
    {
      "inputs": [
        {
          "internalType": "bytes32",
          "name": "role",
          "type": "bytes32"
        },
        {
          "internalType": "address",
          "name": "account",
          "type": "address"
        }
      ],
      "name": "grantRole",
      "outputs": [],
      "stateMutability": "nonpayable",
      "type": "function"
    },
    {
      "inputs": [
        {
          "internalType": "bytes32",
          "name": "role",
          "type": "bytes32"
        },
        {
          "internalType": "address",
          "name": "account",
          "type": "address"
        }
      ],
      "name": "hasRole",
      "outputs": [
        {
          "internalType": "bool",
          "name": "",
          "type": "bool"
        }
      ],
      "stateMutability": "view",
      "type": "function"
    },
    {
      "inputs": [
        {
          "internalType": "address",
          "name": "owner",
          "type": "address"
        },
        {
          "internalType": "address",
          "name": "operator",
          "type": "address"
        }
      ],
      "name": "isApprovedForAll",
      "outputs": [
        {
          "internalType": "bool",
          "name": "",
          "type": "bool"
        }
      ],
      "stateMutability": "view",
      "type": "function"
    },
    {
      "inputs": [
        {
          "internalType": "address",
          "name": "recipient",
          "type": "address"
        }
      ],
      "name": "mintNFT",
      "outputs": [
        {
          "internalType": "uint256",
          "name": "",
          "type": "uint256"
        }
      ],
      "stateMutability": "nonpayable",
      "type": "function"
    },
    {
      "inputs": [],
      "name": "name",
      "outputs": [
        {
          "internalType": "string",
          "name": "",
          "type": "string"
        }
      ],
      "stateMutability": "view",
      "type": "function"
    },
    {
      "inputs": [
        {
          "internalType": "address",
          "name": "owner",
          "type": "address"
        }
      ],
      "name": "nonces",
      "outputs": [
        {
          "internalType": "uint256",
          "name": "",
          "type": "uint256"
        }
      ],
      "stateMutability": "view",
      "type": "function"
    },
    {
      "inputs": [
        {
          "internalType": "uint256",
          "name": "tokenId",
          "type": "uint256"
        }
      ],
      "name": "ownerOf",
      "outputs": [
        {
          "internalType": "address",
          "name": "",
          "type": "address"
        }
      ],
      "stateMutability": "view",
      "type": "function"
    },
    {
      "inputs": [
        {
          "internalType": "bytes32",
          "name": "role",
          "type": "bytes32"
        },
        {
          "internalType": "address",
          "name": "account",
          "type": "address"
        }
      ],
      "name": "renounceRole",
      "outputs": [],
      "stateMutability": "nonpayable",
      "type": "function"
    },
    {
      "inputs": [
        {
          "internalType": "bytes32",
          "name": "role",
          "type": "bytes32"
        },
        {
          "internalType": "address",
          "name": "account",
          "type": "address"
        }
      ],
      "name": "revokeRole",
      "outputs": [],
      "stateMutability": "nonpayable",
      "type": "function"
    },
    {
      "inputs": [
        {
          "internalType": "address",
          "name": "from",
          "type": "address"
        },
        {
          "internalType": "address",
          "name": "to",
          "type": "address"
        },
        {
          "internalType": "uint256",
          "name": "tokenId",
          "type": "uint256"
        }
      ],
      "name": "safeTransferFrom",
      "outputs": [],
      "stateMutability": "nonpayable",
      "type": "function"
    },
    {
      "inputs": [
        {
          "internalType": "address",
          "name": "from",
          "type": "address"
        },
        {
          "internalType": "address",
          "name": "to",
          "type": "address"
        },
        {
          "internalType": "uint256",
          "name": "tokenId",
          "type": "uint256"
        },
        {
          "internalType": "bytes",
          "name": "data",
          "type": "bytes"
        }
      ],
      "name": "safeTransferFrom",
      "outputs": [],
      "stateMutability": "nonpayable",
      "type": "function"
    },
    {
      "inputs": [
        {
          "internalType": "address",
          "name": "operator",
          "type": "address"
        },
        {
          "internalType": "bool",
          "name": "approved",
          "type": "bool"
        }
      ],
      "name": "setApprovalForAll",
      "outputs": [],
      "stateMutability": "nonpayable",
      "type": "function"
    },
    {
      "inputs": [
        {
          "internalType": "bytes4",
          "name": "interfaceId",
          "type": "bytes4"
        }
      ],
      "name": "supportsInterface",
      "outputs": [
        {
          "internalType": "bool",
          "name": "",
          "type": "bool"
        }
      ],
      "stateMutability": "view",
      "type": "function"
    },
    {
      "inputs": [],
      "name": "symbol",
      "outputs": [
        {
          "internalType": "string",
          "name": "",
          "type": "string"
        }
      ],
      "stateMutability": "view",
      "type": "function"
    },
    {
      "inputs": [
        {
          "internalType": "uint256",
          "name": "index",
          "type": "uint256"
        }
      ],
      "name": "tokenByIndex",
      "outputs": [
        {
          "internalType": "uint256",
          "name": "",
          "type": "uint256"
        }
      ],
      "stateMutability": "view",
      "type": "function"
    },
    {
      "inputs": [
        {
          "internalType": "address",
          "name": "owner",
          "type": "address"
        },
        {
          "internalType": "uint256",
          "name": "index",
          "type": "uint256"
        }
      ],
      "name": "tokenOfOwnerByIndex",
      "outputs": [
        {
          "internalType": "uint256",
          "name": "",
          "type": "uint256"
        }
      ],
      "stateMutability": "view",
      "type": "function"
    },
    {
      "inputs": [
        {
          "internalType": "uint256",
          "name": "tokenId",
          "type": "uint256"
        }
      ],
      "name": "tokenURI",
      "outputs": [
        {
          "internalType": "string",
          "name": "",
          "type": "string"
        }
      ],
      "stateMutability": "view",
      "type": "function"
    },
    {
      "inputs": [],
      "name": "totalSupply",
      "outputs": [
        {
          "internalType": "uint256",
          "name": "",
          "type": "uint256"
        }
      ],
      "stateMutability": "view",
      "type": "function"
    },
    {
      "inputs": [
        {
          "internalType": "address",
          "name": "from",
          "type": "address"
        },
        {
          "internalType": "address",
          "name": "to",
          "type": "address"
        },
        {
          "internalType": "uint256",
          "name": "tokenId",
          "type": "uint256"
        }
      ],
      "name": "transferFrom",
      "outputs": [],
      "stateMutability": "nonpayable",
      "type": "function"
    }
  ],
  "bytecode": "0x6101406040523480156200001257600080fd5b5060405162003b8238038062003b82833981016040819052620000359162000309565b604051806040016040528060078152602001665043432044414f60c81b815250604051806040016040528060038152602001620312e360ec1b8152506040518060400160405280601781526020017f54455354315043432044414f204d656d6265727368697000000000000000000081525060405180604001604052806005815260200164543150434360d81b8152508160009081620000d69190620004b8565b506001620000e58282620004b8565b5050825160209384012082519284019290922060e08390526101008190524660a0818152604080517f8b73c3c69bb8fe3d512ecc4cf759cc79239f7b179b0ffacaa9a75d522b39400f818901819052818301979097526060810194909452608080850193909352308483018190528151808603909301835260c0948501909152815191909601209052929092526101205250620001a37f9f2df0fed2c77648de5860a4cc508cd0818c85b8b8a1ab4ceeef8d981c8956a68662000222565b620001cf7f3c11d16cbaffd01df69ce1c404f6340ee057498f5f00246190ea54220576a8488562000222565b620001fb7f8e6595ef9afb2a8f70320f393f567bb7a0e6c4ed483caee30f90cc5fcd6659b48462000222565b6200020860008362000222565b6010620002168282620004b8565b50505050505062000584565b6200022e828262000232565b5050565b6000828152600a602090815260408083206001600160a01b038516845290915290205460ff166200022e576000828152600a602090815260408083206001600160a01b03851684529091529020805460ff19166001179055620002923390565b6001600160a01b0316816001600160a01b0316837f2f8788117e7eff1d82e926ec794901d17c78024a50270940304540a733656f0d60405160405180910390a45050565b80516001600160a01b0381168114620002ee57600080fd5b919050565b634e487b7160e01b600052604160045260246000fd5b600080600080600060a086880312156200032257600080fd5b6200032d86620002d6565b945060206200033e818801620002d6565b94506200034e60408801620002d6565b93506200035e60608801620002d6565b60808801519093506001600160401b03808211156200037c57600080fd5b818901915089601f8301126200039157600080fd5b815181811115620003a657620003a6620002f3565b604051601f8201601f19908116603f01168101908382118183101715620003d157620003d1620002f3565b816040528281528c86848701011115620003ea57600080fd5b600093505b828410156200040e5784840186015181850187015292850192620003ef565b60008684830101528096505050505050509295509295909350565b600181811c908216806200043e57607f821691505b6020821081036200045f57634e487b7160e01b600052602260045260246000fd5b50919050565b601f821115620004b357600081815260208120601f850160051c810160208610156200048e5750805b601f850160051c820191505b81811015620004af578281556001016200049a565b5050505b505050565b81516001600160401b03811115620004d457620004d4620002f3565b620004ec81620004e5845462000429565b8462000465565b602080601f8311600181146200052457600084156200050b5750858301515b600019600386901b1c1916600185901b178555620004af565b600085815260208120601f198616915b82811015620005555788860151825594840194600190910190840162000534565b5085821015620005745787850151600019600388901b60f8161c191681555b5050505050600190811b01905550565b60805160a05160c05160e05161010051610120516135ae620005d46000396000611516015260006115650152600061154001526000611499015260006114c3015260006114ed01526135ae6000f3fe608060405234801561001057600080fd5b50600436106102775760003560e01c8063587cde1e1161016057806395d89b41116100d8578063c3cda5201161008c578063d539139311610071578063d5391393146105a0578063d547741f146105c7578063e985e9c5146105da57600080fd5b8063c3cda5201461057a578063c87b56dd1461058d57600080fd5b8063a217fddf116100bd578063a217fddf1461054c578063a22cb46514610554578063b88d4fde1461056757600080fd5b806395d89b41146105315780639ab24eb01461053957600080fd5b806375b238fc1161012f57806387f350b81161011457806387f350b8146104d25780638e539e8c146104e557806391d14854146104f857600080fd5b806375b238fc146104985780637ecebe00146104bf57600080fd5b8063587cde1e146104335780635c19a95c1461045f5780636352211e1461047257806370a082311461048557600080fd5b80632f2ff15d116101f35780633a46b1a8116101c257806342966c68116101a757806342966c68146103fa5780634f6ccce71461040d57806354ba0f271461042057600080fd5b80633a46b1a8146103d457806342842e0e146103e757600080fd5b80632f2ff15d146103935780632f745c59146103a65780633644e515146103b957806336568abe146103c157600080fd5b80630ab5f32a1161024a57806323b872dd1161022f57806323b872dd14610336578063248a9ca314610349578063282c51f31461036c57600080fd5b80630ab5f32a146102f957806318160ddd1461032e57600080fd5b806301ffc9a71461027c57806306fdde03146102a4578063081812fc146102b9578063095ea7b3146102e4575b600080fd5b61028f61028a366004612eff565b610616565b60405190151581526020015b60405180910390f35b6102ac610627565b60405161029b9190612f6c565b6102cc6102c7366004612f7f565b6106b9565b6040516001600160a01b03909116815260200161029b565b6102f76102f2366004612fb4565b6106e0565b005b6103207f8e6595ef9afb2a8f70320f393f567bb7a0e6c4ed483caee30f90cc5fcd6659b481565b60405190815260200161029b565b600854610320565b6102f7610344366004612fde565b610816565b610320610357366004612f7f565b6000908152600a602052604090206001015490565b6103207f3c11d16cbaffd01df69ce1c404f6340ee057498f5f00246190ea54220576a84881565b6102f76103a136600461301a565b61088e565b6103206103b4366004612fb4565b6108b3565b61032061095b565b6102f76103cf36600461301a565b61096a565b6103206103e2366004612fb4565b6109f6565b6102f76103f5366004612fde565b610a1f565b6102f7610408366004612f7f565b610a3a565b61032061041b366004612f7f565b610acb565b61032061042e366004613046565b610b6f565b6102cc610441366004613046565b6001600160a01b039081166000908152600b60205260409020541690565b6102f761046d366004613046565b610bc9565b6102cc610480366004612f7f565b610bd4565b610320610493366004613046565b610c39565b6103207f1effbbff9c66c5e59634f24fe842750c60d18891155c32dd155fc2d661a4c86d81565b6103206104cd366004613046565b610cd3565b6102f76104e03660046130ed565b610cf1565b6103206104f3366004612f7f565b610d27565b61028f61050636600461301a565b6000918252600a602090815260408084206001600160a01b0393909316845291905290205460ff1690565b6102ac610d83565b610320610547366004613046565b610d92565b610320600081565b6102f7610562366004613136565b610dc2565b6102f7610575366004613172565b610dcd565b6102f76105883660046131ee565b610e4b565b6102ac61059b366004612f7f565b610f81565b6103207f9f2df0fed2c77648de5860a4cc508cd0818c85b8b8a1ab4ceeef8d981c8956a681565b6102f76105d536600461301a565b61101e565b61028f6105e836600461324e565b6001600160a01b03918216600090815260056020908152604080832093909416825291909152205460ff1690565b600061062182611043565b92915050565b60606000805461063690613278565b80601f016020809104026020016040519081016040528092919081815260200182805461066290613278565b80156106af5780601f10610684576101008083540402835291602001916106af565b820191906000526020600020905b81548152906001019060200180831161069257829003601f168201915b5050505050905090565b60006106c482611081565b506000908152600460205260409020546001600160a01b031690565b60006106eb82610bd4565b9050806001600160a01b0316836001600160a01b0316036107795760405162461bcd60e51b815260206004820152602160248201527f4552433732313a20617070726f76616c20746f2063757272656e74206f776e6560448201527f720000000000000000000000000000000000000000000000000000000000000060648201526084015b60405180910390fd5b336001600160a01b0382161480610795575061079581336105e8565b6108075760405162461bcd60e51b815260206004820152603d60248201527f4552433732313a20617070726f76652063616c6c6572206973206e6f7420746f60448201527f6b656e206f776e6572206f7220617070726f76656420666f7220616c6c0000006064820152608401610770565b61081183836110e5565b505050565b610821335b82611153565b6108835760405162461bcd60e51b815260206004820152602d60248201527f4552433732313a2063616c6c6572206973206e6f7420746f6b656e206f776e6560448201526c1c881bdc88185c1c1c9bdd9959609a1b6064820152608401610770565b6108118383836111d2565b6000828152600a60205260409020600101546108a9816113e0565b61081183836113ea565b60006108be83610c39565b82106109325760405162461bcd60e51b815260206004820152602b60248201527f455243373231456e756d657261626c653a206f776e657220696e646578206f7560448201527f74206f6620626f756e64730000000000000000000000000000000000000000006064820152608401610770565b506001600160a01b03919091166000908152600660209081526040808320938352929052205490565b600061096561148c565b905090565b6001600160a01b03811633146109e85760405162461bcd60e51b815260206004820152602f60248201527f416363657373436f6e74726f6c3a2063616e206f6e6c792072656e6f756e636560448201527f20726f6c657320666f722073656c6600000000000000000000000000000000006064820152608401610770565b6109f282826115b3565b5050565b6001600160a01b0382166000908152600c60205260408120610a189083611636565b9392505050565b61081183838360405180602001604052806000815250610dcd565b610a647f3c11d16cbaffd01df69ce1c404f6340ee057498f5f00246190ea54220576a84833610506565b80610a735750610a733361081b565b610abf5760405162461bcd60e51b815260206004820152601260248201527f43616c6c65722063616e6e6f74206275726e00000000000000000000000000006044820152606401610770565b610ac881611752565b50565b6000610ad660085490565b8210610b4a5760405162461bcd60e51b815260206004820152602c60248201527f455243373231456e756d657261626c653a20676c6f62616c20696e646578206f60448201527f7574206f6620626f756e647300000000000000000000000000000000000000006064820152608401610770565b60088281548110610b5d57610b5d6132ac565b90600052602060002001549050919050565b60007f9f2df0fed2c77648de5860a4cc508cd0818c85b8b8a1ab4ceeef8d981c8956a6610b9b816113e0565b610ba9600f80546001019055565b6000610bb4600f5490565b9050610bc084826117ff565b91505b50919050565b336109f28183611819565b6000818152600260205260408120546001600160a01b0316806106215760405162461bcd60e51b815260206004820152601860248201527f4552433732313a20696e76616c696420746f6b656e20494400000000000000006044820152606401610770565b60006001600160a01b038216610cb75760405162461bcd60e51b815260206004820152602960248201527f4552433732313a2061646472657373207a65726f206973206e6f74206120766160448201527f6c6964206f776e657200000000000000000000000000000000000000000000006064820152608401610770565b506001600160a01b031660009081526003602052604090205490565b6001600160a01b0381166000908152600e6020526040812054610621565b7f8e6595ef9afb2a8f70320f393f567bb7a0e6c4ed483caee30f90cc5fcd6659b4610d1b816113e0565b60106108118382613310565b6000438210610d785760405162461bcd60e51b815260206004820152601a60248201527f566f7465733a20626c6f636b206e6f7420796574206d696e65640000000000006044820152606401610770565b610621600d83611636565b60606001805461063690613278565b6001600160a01b0381166000908152600c60205260408120610db39061188b565b6001600160e01b031692915050565b6109f23383836118c5565b610dd73383611153565b610e395760405162461bcd60e51b815260206004820152602d60248201527f4552433732313a2063616c6c6572206973206e6f7420746f6b656e206f776e6560448201526c1c881bdc88185c1c1c9bdd9959609a1b6064820152608401610770565b610e4584848484611993565b50505050565b83421115610e9b5760405162461bcd60e51b815260206004820152601860248201527f566f7465733a207369676e6174757265206578706972656400000000000000006044820152606401610770565b604080517fe48329057bfd03d55e49b547132e39cffd9c1820ad7b9d4c5307691425d15adf60208201526001600160a01b038816918101919091526060810186905260808101859052600090610f1590610f0d9060a00160405160208183030381529060405280519060200120611a11565b858585611a7a565b9050610f2081611aa2565b8614610f6e5760405162461bcd60e51b815260206004820152601460248201527f566f7465733a20696e76616c6964206e6f6e63650000000000000000000000006044820152606401610770565b610f788188611819565b50505050505050565b6060610f8c82611081565b60108054610f9990613278565b80601f0160208091040260200160405190810160405280929190818152602001828054610fc590613278565b80156110125780601f10610fe757610100808354040283529160200191611012565b820191906000526020600020905b815481529060010190602001808311610ff557829003601f168201915b50505050509050919050565b6000828152600a6020526040902060010154611039816113e0565b61081183836115b3565b60006001600160e01b031982167f7965db0b000000000000000000000000000000000000000000000000000000001480610621575061062182611ac8565b6000818152600260205260409020546001600160a01b0316610ac85760405162461bcd60e51b815260206004820152601860248201527f4552433732313a20696e76616c696420746f6b656e20494400000000000000006044820152606401610770565b600081815260046020526040902080546001600160a01b0319166001600160a01b038416908117909155819061111a82610bd4565b6001600160a01b03167f8c5be1e5ebec7d5bd14f71427d1e84f3dd0314c0f7b2291e5b200ac8c7c3b92560405160405180910390a45050565b60008061115f83610bd4565b9050806001600160a01b0316846001600160a01b031614806111a657506001600160a01b0380821660009081526005602090815260408083209388168352929052205460ff165b806111ca5750836001600160a01b03166111bf846106b9565b6001600160a01b0316145b949350505050565b826001600160a01b03166111e582610bd4565b6001600160a01b0316146112495760405162461bcd60e51b815260206004820152602560248201527f4552433732313a207472616e736665722066726f6d20696e636f72726563742060448201526437bbb732b960d91b6064820152608401610770565b6001600160a01b0382166112c45760405162461bcd60e51b8152602060048201526024808201527f4552433732313a207472616e7366657220746f20746865207a65726f2061646460448201527f72657373000000000000000000000000000000000000000000000000000000006064820152608401610770565b6112d18383836001611b06565b826001600160a01b03166112e482610bd4565b6001600160a01b0316146113485760405162461bcd60e51b815260206004820152602560248201527f4552433732313a207472616e736665722066726f6d20696e636f72726563742060448201526437bbb732b960d91b6064820152608401610770565b600081815260046020908152604080832080546001600160a01b03199081169091556001600160a01b0387811680865260038552838620805460001901905590871680865283862080546001019055868652600290945282852080549092168417909155905184937fddf252ad1be2c89b69c2b068fc378daa952ba7f163c4a11628f55a4df523b3ef91a46108118383836001611be3565b610ac88133611bfa565b6000828152600a602090815260408083206001600160a01b038516845290915290205460ff166109f2576000828152600a602090815260408083206001600160a01b03851684529091529020805460ff191660011790556114483390565b6001600160a01b0316816001600160a01b0316837f2f8788117e7eff1d82e926ec794901d17c78024a50270940304540a733656f0d60405160405180910390a45050565b6000306001600160a01b037f0000000000000000000000000000000000000000000000000000000000000000161480156114e557507f000000000000000000000000000000000000000000000000000000000000000046145b1561150f57507f000000000000000000000000000000000000000000000000000000000000000090565b50604080517f00000000000000000000000000000000000000000000000000000000000000006020808301919091527f0000000000000000000000000000000000000000000000000000000000000000828401527f000000000000000000000000000000000000000000000000000000000000000060608301524660808301523060a0808401919091528351808403909101815260c0909201909252805191012090565b6000828152600a602090815260408083206001600160a01b038516845290915290205460ff16156109f2576000828152600a602090815260408083206001600160a01b0385168085529252808320805460ff1916905551339285917ff6391f5c32d9c69d2a47ea670b442974b53935d1edc7fd64eb21e047a839171b9190a45050565b60004382106116875760405162461bcd60e51b815260206004820181905260248201527f436865636b706f696e74733a20626c6f636b206e6f7420796574206d696e65646044820152606401610770565b600061169283611c6f565b845490915060008160058111156116f05760006116ae84611cef565b6116b890856133e6565b60008981526020902090915081015463ffffffff90811690861610156116e0578091506116ee565b6116eb8160016133f9565b92505b505b60006116fe88868585611dd7565b9050801561173a57611723886117156001846133e6565b600091825260209091200190565b5464010000000090046001600160e01b031661173d565b60005b6001600160e01b031698975050505050505050565b600061175d82610bd4565b905061176d816000846001611b06565b61177682610bd4565b600083815260046020908152604080832080546001600160a01b03199081169091556001600160a01b0385168085526003845282852080546000190190558785526002909352818420805490911690555192935084927fddf252ad1be2c89b69c2b068fc378daa952ba7f163c4a11628f55a4df523b3ef908390a46109f2816000846001611be3565b6109f2828260405180602001604052806000815250611e35565b6001600160a01b038281166000818152600b602052604080822080548686166001600160a01b0319821681179092559151919094169392849290917f3134e8a2e6d97e929a7e54011ea5485d7d196dd5f0ba4d4ef95803e8e3fc257f9190a4610811818361188686611eb3565b611ebe565b805460009080156118bc576118a5836117156001846133e6565b5464010000000090046001600160e01b0316610a18565b60009392505050565b816001600160a01b0316836001600160a01b0316036119265760405162461bcd60e51b815260206004820152601960248201527f4552433732313a20617070726f766520746f2063616c6c6572000000000000006044820152606401610770565b6001600160a01b03838116600081815260056020908152604080832094871680845294825291829020805460ff191686151590811790915591519182527f17307eab39ab6107e8899845ad3d59bd9653f200f220920489ca2b5937696c31910160405180910390a3505050565b61199e8484846111d2565b6119aa84848484611ffb565b610e455760405162461bcd60e51b815260206004820152603260248201527f4552433732313a207472616e7366657220746f206e6f6e20455243373231526560448201527131b2b4bb32b91034b6b83632b6b2b73a32b960711b6064820152608401610770565b6000610621611a1e61148c565b836040517f19010000000000000000000000000000000000000000000000000000000000006020820152602281018390526042810182905260009060620160405160208183030381529060405280519060200120905092915050565b6000806000611a8b87878787612144565b91509150611a9881612208565b5095945050505050565b6001600160a01b0381166000908152600e60205260409020805460018101825590610bc3565b60006001600160e01b031982167f780e9d6300000000000000000000000000000000000000000000000000000000148061062157506106218261236d565b6001600160a01b0384161580611b2357506001600160a01b038316155b611b6f5760405162461bcd60e51b815260206004820152601e60248201527f4572723a20746f6b656e207472616e7366657220697320424c4f434b454400006044820152606401610770565b6001600160a01b0383161580611b8b5750611b8983610c39565b155b611bd75760405162461bcd60e51b815260206004820152601c60248201527f4572723a20796f7520616c7265616479206f776e206120746f6b656e000000006044820152606401610770565b610e4584848484612408565b611bee848483612550565b610e45848484846125c0565b6000828152600a602090815260408083206001600160a01b038516845290915290205460ff166109f257611c2d816125d0565b611c388360206125e2565b604051602001611c4992919061340c565b60408051601f198184030181529082905262461bcd60e51b825261077091600401612f6c565b600063ffffffff821115611ceb5760405162461bcd60e51b815260206004820152602660248201527f53616665436173743a2076616c756520646f65736e27742066697420696e203360448201527f32206269747300000000000000000000000000000000000000000000000000006064820152608401610770565b5090565b600081600003611d0157506000919050565b60006001611d0e846127c3565b901c6001901b90506001818481611d2757611d2761348d565b048201901c90506001818481611d3f57611d3f61348d565b048201901c90506001818481611d5757611d5761348d565b048201901c90506001818481611d6f57611d6f61348d565b048201901c90506001818481611d8757611d8761348d565b048201901c90506001818481611d9f57611d9f61348d565b048201901c90506001818481611db757611db761348d565b048201901c9050610a1881828581611dd157611dd161348d565b04612857565b60005b81831015611e2d576000611dee848461286d565b60008781526020902090915063ffffffff86169082015463ffffffff161115611e1957809250611e27565b611e248160016133f9565b93505b50611dda565b509392505050565b611e3f8383612888565b611e4c6000848484611ffb565b6108115760405162461bcd60e51b815260206004820152603260248201527f4552433732313a207472616e7366657220746f206e6f6e20455243373231526560448201527131b2b4bb32b91034b6b83632b6b2b73a32b960711b6064820152608401610770565b600061062182610c39565b816001600160a01b0316836001600160a01b031614158015611ee05750600081115b15610811576001600160a01b03831615611f6e576001600160a01b0383166000908152600c602052604081208190611f1b90612a2b85612a37565b91509150846001600160a01b03167fdec2bacdd2f05b59de34da9b523dff8be42e5e38e818c82fdb0bae774387a7248383604051611f63929190918252602082015260400190565b60405180910390a250505b6001600160a01b03821615610811576001600160a01b0382166000908152600c602052604081208190611fa490612a6f85612a37565b91509150836001600160a01b03167fdec2bacdd2f05b59de34da9b523dff8be42e5e38e818c82fdb0bae774387a7248383604051611fec929190918252602082015260400190565b60405180910390a25050505050565b60006001600160a01b0384163b1561213c57604051630a85bd0160e11b81526001600160a01b0385169063150b7a029061203f9033908990889088906004016134a3565b6020604051808303816000875af192505050801561207a575060408051601f3d908101601f19168201909252612077918101906134df565b60015b612122573d8080156120a8576040519150601f19603f3d011682016040523d82523d6000602084013e6120ad565b606091505b50805160000361211a5760405162461bcd60e51b815260206004820152603260248201527f4552433732313a207472616e7366657220746f206e6f6e20455243373231526560448201527131b2b4bb32b91034b6b83632b6b2b73a32b960711b6064820152608401610770565b805181602001fd5b6001600160e01b031916630a85bd0160e11b1490506111ca565b5060016111ca565b6000807f7fffffffffffffffffffffffffffffff5d576e7357a4501ddfe92f46681b20a083111561217b57506000905060036121ff565b6040805160008082526020820180845289905260ff881692820192909252606081018690526080810185905260019060a0016020604051602081039080840390855afa1580156121cf573d6000803e3d6000fd5b5050604051601f1901519150506001600160a01b0381166121f8576000600192509250506121ff565b9150600090505b94509492505050565b600081600481111561221c5761221c6134fc565b036122245750565b6001816004811115612238576122386134fc565b036122855760405162461bcd60e51b815260206004820152601860248201527f45434453413a20696e76616c6964207369676e617475726500000000000000006044820152606401610770565b6002816004811115612299576122996134fc565b036122e65760405162461bcd60e51b815260206004820152601f60248201527f45434453413a20696e76616c6964207369676e6174757265206c656e677468006044820152606401610770565b60038160048111156122fa576122fa6134fc565b03610ac85760405162461bcd60e51b815260206004820152602260248201527f45434453413a20696e76616c6964207369676e6174757265202773272076616c60448201527f75650000000000000000000000000000000000000000000000000000000000006064820152608401610770565b60006001600160e01b031982167f80ac58cd0000000000000000000000000000000000000000000000000000000014806123d057506001600160e01b031982167f5b5e139f00000000000000000000000000000000000000000000000000000000145b8061062157507f01ffc9a7000000000000000000000000000000000000000000000000000000006001600160e01b0319831614610621565b61241484848484612a7b565b600181111561248b5760405162461bcd60e51b815260206004820152603560248201527f455243373231456e756d657261626c653a20636f6e736563757469766520747260448201527f616e7366657273206e6f7420737570706f7274656400000000000000000000006064820152608401610770565b816001600160a01b0385166124e7576124e281600880546000838152600960205260408120829055600182018355919091527ff3f7a9fe364faab93b216da50a3214154f22a0a2b415b23a84c8169e8b636ee30155565b61250a565b836001600160a01b0316856001600160a01b03161461250a5761250a8582612b03565b6001600160a01b0384166125265761252181612ba0565b612549565b846001600160a01b0316846001600160a01b031614612549576125498482612c4f565b5050505050565b6001600160a01b03831661256f5761256c600d612a6f83612a37565b50505b6001600160a01b03821661258e5761258b600d612a2b83612a37565b50505b6001600160a01b038381166000908152600b602052604080822054858416835291205461081192918216911683611ebe565b6125cb848483612550565b610e45565b60606106216001600160a01b03831660145b606060006125f1836002613512565b6125fc9060026133f9565b67ffffffffffffffff81111561261457612614613061565b6040519080825280601f01601f19166020018201604052801561263e576020820181803683370190505b5090507f300000000000000000000000000000000000000000000000000000000000000081600081518110612675576126756132ac565b60200101906001600160f81b031916908160001a9053507f7800000000000000000000000000000000000000000000000000000000000000816001815181106126c0576126c06132ac565b60200101906001600160f81b031916908160001a90535060006126e4846002613512565b6126ef9060016133f9565b90505b6001811115612774577f303132333435363738396162636465660000000000000000000000000000000085600f1660108110612730576127306132ac565b1a60f81b828281518110612746576127466132ac565b60200101906001600160f81b031916908160001a90535060049490941c9361276d81613529565b90506126f2565b508315610a185760405162461bcd60e51b815260206004820181905260248201527f537472696e67733a20686578206c656e67746820696e73756666696369656e746044820152606401610770565b600080608083901c156127d857608092831c92015b604083901c156127ea57604092831c92015b602083901c156127fc57602092831c92015b601083901c1561280e57601092831c92015b600883901c1561282057600892831c92015b600483901c1561283257600492831c92015b600283901c1561284457600292831c92015b600183901c156106215760010192915050565b60008183106128665781610a18565b5090919050565b600061287c6002848418613540565b610a18908484166133f9565b6001600160a01b0382166128de5760405162461bcd60e51b815260206004820181905260248201527f4552433732313a206d696e7420746f20746865207a65726f20616464726573736044820152606401610770565b6000818152600260205260409020546001600160a01b0316156129435760405162461bcd60e51b815260206004820152601c60248201527f4552433732313a20746f6b656e20616c7265616479206d696e746564000000006044820152606401610770565b612951600083836001611b06565b6000818152600260205260409020546001600160a01b0316156129b65760405162461bcd60e51b815260206004820152601c60248201527f4552433732313a20746f6b656e20616c7265616479206d696e746564000000006044820152606401610770565b6001600160a01b038216600081815260036020908152604080832080546001019055848352600290915280822080546001600160a01b0319168417905551839291907fddf252ad1be2c89b69c2b068fc378daa952ba7f163c4a11628f55a4df523b3ef908290a46109f2600083836001611be3565b6000610a1882846133e6565b600080612a6285612a5d612a4a8861188b565b6001600160e01b0316868863ffffffff16565b612c93565b915091505b935093915050565b6000610a1882846133f9565b6001811115610e45576001600160a01b03841615612ac1576001600160a01b03841660009081526003602052604081208054839290612abb9084906133e6565b90915550505b6001600160a01b03831615610e45576001600160a01b03831660009081526003602052604081208054839290612af89084906133f9565b909155505050505050565b60006001612b1084610c39565b612b1a91906133e6565b600083815260076020526040902054909150808214612b6d576001600160a01b03841660009081526006602090815260408083208584528252808320548484528184208190558352600790915290208190555b5060009182526007602090815260408084208490556001600160a01b039094168352600681528383209183525290812055565b600854600090612bb2906001906133e6565b60008381526009602052604081205460088054939450909284908110612bda57612bda6132ac565b906000526020600020015490508060088381548110612bfb57612bfb6132ac565b6000918252602080832090910192909255828152600990915260408082208490558582528120556008805480612c3357612c33613562565b6001900381819060005260206000200160009055905550505050565b6000612c5a83610c39565b6001600160a01b039093166000908152600660209081526040808320868452825280832085905593825260079052919091209190915550565b600080612cb184612ca343611c6f565b612cac86612cc7565b612d46565b6001600160e01b03918216969116945092505050565b60006001600160e01b03821115611ceb5760405162461bcd60e51b815260206004820152602760248201527f53616665436173743a2076616c756520646f65736e27742066697420696e203260448201527f32342062697473000000000000000000000000000000000000000000000000006064820152608401610770565b825460009081908015612e8f576000612d64876117156001856133e6565b60408051808201909152905463ffffffff8082168084526401000000009092046001600160e01b031660208401529192509087161015612de65760405162461bcd60e51b815260206004820152601760248201527f436865636b706f696e743a20696e76616c6964206b65790000000000000000006044820152606401610770565b805163ffffffff808816911603612e2f5784612e07886117156001866133e6565b80546001600160e01b03929092166401000000000263ffffffff909216919091179055612e7f565b6040805180820190915263ffffffff80881682526001600160e01b0380881660208085019182528b54600181018d5560008d81529190912094519151909216640100000000029216919091179101555b602001519250839150612a679050565b50506040805180820190915263ffffffff80851682526001600160e01b0380851660208085019182528854600181018a5560008a815291822095519251909316640100000000029190931617920191909155905081612a67565b6001600160e01b031981168114610ac857600080fd5b600060208284031215612f1157600080fd5b8135610a1881612ee9565b60005b83811015612f37578181015183820152602001612f1f565b50506000910152565b60008151808452612f58816020860160208601612f1c565b601f01601f19169290920160200192915050565b602081526000610a186020830184612f40565b600060208284031215612f9157600080fd5b5035919050565b80356001600160a01b0381168114612faf57600080fd5b919050565b60008060408385031215612fc757600080fd5b612fd083612f98565b946020939093013593505050565b600080600060608486031215612ff357600080fd5b612ffc84612f98565b925061300a60208501612f98565b9150604084013590509250925092565b6000806040838503121561302d57600080fd5b8235915061303d60208401612f98565b90509250929050565b60006020828403121561305857600080fd5b610a1882612f98565b634e487b7160e01b600052604160045260246000fd5b600067ffffffffffffffff8084111561309257613092613061565b604051601f8501601f19908116603f011681019082821181831017156130ba576130ba613061565b816040528093508581528686860111156130d357600080fd5b858560208301376000602087830101525050509392505050565b6000602082840312156130ff57600080fd5b813567ffffffffffffffff81111561311657600080fd5b8201601f8101841361312757600080fd5b6111ca84823560208401613077565b6000806040838503121561314957600080fd5b61315283612f98565b91506020830135801515811461316757600080fd5b809150509250929050565b6000806000806080858703121561318857600080fd5b61319185612f98565b935061319f60208601612f98565b925060408501359150606085013567ffffffffffffffff8111156131c257600080fd5b8501601f810187136131d357600080fd5b6131e287823560208401613077565b91505092959194509250565b60008060008060008060c0878903121561320757600080fd5b61321087612f98565b95506020870135945060408701359350606087013560ff8116811461323457600080fd5b9598949750929560808101359460a0909101359350915050565b6000806040838503121561326157600080fd5b61326a83612f98565b915061303d60208401612f98565b600181811c9082168061328c57607f821691505b602082108103610bc357634e487b7160e01b600052602260045260246000fd5b634e487b7160e01b600052603260045260246000fd5b601f82111561081157600081815260208120601f850160051c810160208610156132e95750805b601f850160051c820191505b81811015613308578281556001016132f5565b505050505050565b815167ffffffffffffffff81111561332a5761332a613061565b61333e816133388454613278565b846132c2565b602080601f831160018114613373576000841561335b5750858301515b600019600386901b1c1916600185901b178555613308565b600085815260208120601f198616915b828110156133a257888601518255948401946001909101908401613383565b50858210156133c05787850151600019600388901b60f8161c191681555b5050505050600190811b01905550565b634e487b7160e01b600052601160045260246000fd5b81810381811115610621576106216133d0565b80820180821115610621576106216133d0565b7f416363657373436f6e74726f6c3a206163636f756e7420000000000000000000815260008351613444816017850160208801612f1c565b7f206973206d697373696e6720726f6c65200000000000000000000000000000006017918401918201528351613481816028840160208801612f1c565b01602801949350505050565b634e487b7160e01b600052601260045260246000fd5b60006001600160a01b038087168352808616602084015250836040830152608060608301526134d56080830184612f40565b9695505050505050565b6000602082840312156134f157600080fd5b8151610a1881612ee9565b634e487b7160e01b600052602160045260246000fd5b8082028115828204841417610621576106216133d0565b600081613538576135386133d0565b506000190190565b60008261355d57634e487b7160e01b600052601260045260246000fd5b500490565b634e487b7160e01b600052603160045260246000fdfea26469706673582212206c074f9a94342c2014c8cc6e717d00ac807b2aff814355d24c9ecaba41631ff264736f6c63430008110033",
  "linkReferences": {},
  "deployedLinkReferences": {}
}