{
  "_format": "hh-sol-artifact-1",
  "contractName": "PCCMembershipNFT",
  "sourceName": "contracts/PCCMembershipNFT.sol",
  "abi": [
    {
      "inputs": [
        {
          "internalType": "address",
          "name": "minter",
          "type": "address"
        },
        {
          "internalType": "address",
          "name": "burner",
          "type": "address"
        },
        {
          "internalType": "address",
          "name": "uri",
          "type": "address"
        },
        {
          "internalType": "address",
          "name": "admin",
          "type": "address"
        },
        {
          "internalType": "string",
          "name": "_baseTokenURI",
          "type": "string"
        },
        {
          "internalType": "uint256",
          "name": "_randModulus",
          "type": "uint256"
        }
      ],
      "stateMutability": "nonpayable",
      "type": "constructor"
    },
    {
      "anonymous": false,
      "inputs": [
        {
          "indexed": true,
          "internalType": "address",
          "name": "owner",
          "type": "address"
        },
        {
          "indexed": true,
          "internalType": "address",
          "name": "approved",
          "type": "address"
        },
        {
          "indexed": true,
          "internalType": "uint256",
          "name": "tokenId",
          "type": "uint256"
        }
      ],
      "name": "Approval",
      "type": "event"
    },
    {
      "anonymous": false,
      "inputs": [
        {
          "indexed": true,
          "internalType": "address",
          "name": "owner",
          "type": "address"
        },
        {
          "indexed": true,
          "internalType": "address",
          "name": "operator",
          "type": "address"
        },
        {
          "indexed": false,
          "internalType": "bool",
          "name": "approved",
          "type": "bool"
        }
      ],
      "name": "ApprovalForAll",
      "type": "event"
    },
    {
      "anonymous": false,
      "inputs": [
        {
          "indexed": true,
          "internalType": "address",
          "name": "delegator",
          "type": "address"
        },
        {
          "indexed": true,
          "internalType": "address",
          "name": "fromDelegate",
          "type": "address"
        },
        {
          "indexed": true,
          "internalType": "address",
          "name": "toDelegate",
          "type": "address"
        }
      ],
      "name": "DelegateChanged",
      "type": "event"
    },
    {
      "anonymous": false,
      "inputs": [
        {
          "indexed": true,
          "internalType": "address",
          "name": "delegate",
          "type": "address"
        },
        {
          "indexed": false,
          "internalType": "uint256",
          "name": "previousBalance",
          "type": "uint256"
        },
        {
          "indexed": false,
          "internalType": "uint256",
          "name": "newBalance",
          "type": "uint256"
        }
      ],
      "name": "DelegateVotesChanged",
      "type": "event"
    },
    {
      "anonymous": false,
      "inputs": [
        {
          "indexed": true,
          "internalType": "bytes32",
          "name": "role",
          "type": "bytes32"
        },
        {
          "indexed": true,
          "internalType": "bytes32",
          "name": "previousAdminRole",
          "type": "bytes32"
        },
        {
          "indexed": true,
          "internalType": "bytes32",
          "name": "newAdminRole",
          "type": "bytes32"
        }
      ],
      "name": "RoleAdminChanged",
      "type": "event"
    },
    {
      "anonymous": false,
      "inputs": [
        {
          "indexed": true,
          "internalType": "bytes32",
          "name": "role",
          "type": "bytes32"
        },
        {
          "indexed": true,
          "internalType": "address",
          "name": "account",
          "type": "address"
        },
        {
          "indexed": true,
          "internalType": "address",
          "name": "sender",
          "type": "address"
        }
      ],
      "name": "RoleGranted",
      "type": "event"
    },
    {
      "anonymous": false,
      "inputs": [
        {
          "indexed": true,
          "internalType": "bytes32",
          "name": "role",
          "type": "bytes32"
        },
        {
          "indexed": true,
          "internalType": "address",
          "name": "account",
          "type": "address"
        },
        {
          "indexed": true,
          "internalType": "address",
          "name": "sender",
          "type": "address"
        }
      ],
      "name": "RoleRevoked",
      "type": "event"
    },
    {
      "anonymous": false,
      "inputs": [
        {
          "indexed": true,
          "internalType": "address",
          "name": "from",
          "type": "address"
        },
        {
          "indexed": true,
          "internalType": "address",
          "name": "to",
          "type": "address"
        },
        {
          "indexed": true,
          "internalType": "uint256",
          "name": "tokenId",
          "type": "uint256"
        }
      ],
      "name": "Transfer",
      "type": "event"
    },
    {
      "inputs": [],
      "name": "ADMIN_ROLE",
      "outputs": [
        {
          "internalType": "bytes32",
          "name": "",
          "type": "bytes32"
        }
      ],
      "stateMutability": "view",
      "type": "function"
    },
    {
      "inputs": [],
      "name": "BURNER_ROLE",
      "outputs": [
        {
          "internalType": "bytes32",
          "name": "",
          "type": "bytes32"
        }
      ],
      "stateMutability": "view",
      "type": "function"
    },
    {
      "inputs": [],
      "name": "DEFAULT_ADMIN_ROLE",
      "outputs": [
        {
          "internalType": "bytes32",
          "name": "",
          "type": "bytes32"
        }
      ],
      "stateMutability": "view",
      "type": "function"
    },
    {
      "inputs": [],
      "name": "DOMAIN_SEPARATOR",
      "outputs": [
        {
          "internalType": "bytes32",
          "name": "",
          "type": "bytes32"
        }
      ],
      "stateMutability": "view",
      "type": "function"
    },
    {
      "inputs": [],
      "name": "MINTER_ROLE",
      "outputs": [
        {
          "internalType": "bytes32",
          "name": "",
          "type": "bytes32"
        }
      ],
      "stateMutability": "view",
      "type": "function"
    },
    {
      "inputs": [],
      "name": "URI_ROLE",
      "outputs": [
        {
          "internalType": "bytes32",
          "name": "",
          "type": "bytes32"
        }
      ],
      "stateMutability": "view",
      "type": "function"
    },
    {
      "inputs": [
        {
          "internalType": "string",
          "name": "_newBaseExtension",
          "type": "string"
        }
      ],
      "name": "_setBaseExtension",
      "outputs": [],
      "stateMutability": "nonpayable",
      "type": "function"
    },
    {
      "inputs": [
        {
          "internalType": "uint256",
          "name": "_randModulus",
          "type": "uint256"
        }
      ],
      "name": "_setRandModulus",
      "outputs": [],
      "stateMutability": "nonpayable",
      "type": "function"
    },
    {
      "inputs": [
        {
          "internalType": "string",
          "name": "_baseTokenUri",
          "type": "string"
        }
      ],
      "name": "_setTokenURI",
      "outputs": [],
      "stateMutability": "nonpayable",
      "type": "function"
    },
    {
      "inputs": [
        {
          "internalType": "address",
          "name": "to",
          "type": "address"
        },
        {
          "internalType": "uint256",
          "name": "tokenId",
          "type": "uint256"
        }
      ],
      "name": "approve",
      "outputs": [],
      "stateMutability": "nonpayable",
      "type": "function"
    },
    {
      "inputs": [
        {
          "internalType": "address",
          "name": "owner",
          "type": "address"
        }
      ],
      "name": "balanceOf",
      "outputs": [
        {
          "internalType": "uint256",
          "name": "",
          "type": "uint256"
        }
      ],
      "stateMutability": "view",
      "type": "function"
    },
    {
      "inputs": [],
      "name": "baseExtension",
      "outputs": [
        {
          "internalType": "string",
          "name": "",
          "type": "string"
        }
      ],
      "stateMutability": "view",
      "type": "function"
    },
    {
      "inputs": [],
      "name": "baseTokenURI",
      "outputs": [
        {
          "internalType": "string",
          "name": "",
          "type": "string"
        }
      ],
      "stateMutability": "view",
      "type": "function"
    },
    {
      "inputs": [
        {
          "internalType": "uint256",
          "name": "tokenId",
          "type": "uint256"
        }
      ],
      "name": "burn",
      "outputs": [],
      "stateMutability": "nonpayable",
      "type": "function"
    },
    {
      "inputs": [
        {
          "internalType": "address",
          "name": "delegatee",
          "type": "address"
        }
      ],
      "name": "delegate",
      "outputs": [],
      "stateMutability": "nonpayable",
      "type": "function"
    },
    {
      "inputs": [
        {
          "internalType": "address",
          "name": "delegatee",
          "type": "address"
        },
        {
          "internalType": "uint256",
          "name": "nonce",
          "type": "uint256"
        },
        {
          "internalType": "uint256",
          "name": "expiry",
          "type": "uint256"
        },
        {
          "internalType": "uint8",
          "name": "v",
          "type": "uint8"
        },
        {
          "internalType": "bytes32",
          "name": "r",
          "type": "bytes32"
        },
        {
          "internalType": "bytes32",
          "name": "s",
          "type": "bytes32"
        }
      ],
      "name": "delegateBySig",
      "outputs": [],
      "stateMutability": "nonpayable",
      "type": "function"
    },
    {
      "inputs": [
        {
          "internalType": "address",
          "name": "account",
          "type": "address"
        }
      ],
      "name": "delegates",
      "outputs": [
        {
          "internalType": "address",
          "name": "",
          "type": "address"
        }
      ],
      "stateMutability": "view",
      "type": "function"
    },
    {
      "inputs": [
        {
          "internalType": "uint256",
          "name": "tokenId",
          "type": "uint256"
        }
      ],
      "name": "getApproved",
      "outputs": [
        {
          "internalType": "address",
          "name": "",
          "type": "address"
        }
      ],
      "stateMutability": "view",
      "type": "function"
    },
    {
      "inputs": [
        {
          "internalType": "uint256",
          "name": "blockNumber",
          "type": "uint256"
        }
      ],
      "name": "getPastTotalSupply",
      "outputs": [
        {
          "internalType": "uint256",
          "name": "",
          "type": "uint256"
        }
      ],
      "stateMutability": "view",
      "type": "function"
    },
    {
      "inputs": [
        {
          "internalType": "address",
          "name": "account",
          "type": "address"
        },
        {
          "internalType": "uint256",
          "name": "blockNumber",
          "type": "uint256"
        }
      ],
      "name": "getPastVotes",
      "outputs": [
        {
          "internalType": "uint256",
          "name": "",
          "type": "uint256"
        }
      ],
      "stateMutability": "view",
      "type": "function"
    },
    {
      "inputs": [
        {
          "internalType": "bytes32",
          "name": "role",
          "type": "bytes32"
        }
      ],
      "name": "getRoleAdmin",
      "outputs": [
        {
          "internalType": "bytes32",
          "name": "",
          "type": "bytes32"
        }
      ],
      "stateMutability": "view",
      "type": "function"
    },
    {
      "inputs": [
        {
          "internalType": "address",
          "name": "account",
          "type": "address"
        }
      ],
      "name": "getVotes",
      "outputs": [
        {
          "internalType": "uint256",
          "name": "",
          "type": "uint256"
        }
      ],
      "stateMutability": "view",
      "type": "function"
    },
    {
      "inputs": [
        {
          "internalType": "bytes32",
          "name": "role",
          "type": "bytes32"
        },
        {
          "internalType": "address",
          "name": "account",
          "type": "address"
        }
      ],
      "name": "grantRole",
      "outputs": [],
      "stateMutability": "nonpayable",
      "type": "function"
    },
    {
      "inputs": [
        {
          "internalType": "bytes32",
          "name": "role",
          "type": "bytes32"
        },
        {
          "internalType": "address",
          "name": "account",
          "type": "address"
        }
      ],
      "name": "hasRole",
      "outputs": [
        {
          "internalType": "bool",
          "name": "",
          "type": "bool"
        }
      ],
      "stateMutability": "view",
      "type": "function"
    },
    {
      "inputs": [
        {
          "internalType": "address",
          "name": "owner",
          "type": "address"
        },
        {
          "internalType": "address",
          "name": "operator",
          "type": "address"
        }
      ],
      "name": "isApprovedForAll",
      "outputs": [
        {
          "internalType": "bool",
          "name": "",
          "type": "bool"
        }
      ],
      "stateMutability": "view",
      "type": "function"
    },
    {
      "inputs": [
        {
          "internalType": "address",
          "name": "recipient",
          "type": "address"
        }
      ],
      "name": "mintNFT",
      "outputs": [
        {
          "internalType": "uint256",
          "name": "",
          "type": "uint256"
        }
      ],
      "stateMutability": "nonpayable",
      "type": "function"
    },
    {
      "inputs": [],
      "name": "name",
      "outputs": [
        {
          "internalType": "string",
          "name": "",
          "type": "string"
        }
      ],
      "stateMutability": "view",
      "type": "function"
    },
    {
      "inputs": [
        {
          "internalType": "address",
          "name": "owner",
          "type": "address"
        }
      ],
      "name": "nonces",
      "outputs": [
        {
          "internalType": "uint256",
          "name": "",
          "type": "uint256"
        }
      ],
      "stateMutability": "view",
      "type": "function"
    },
    {
      "inputs": [
        {
          "internalType": "uint256",
          "name": "tokenId",
          "type": "uint256"
        }
      ],
      "name": "ownerOf",
      "outputs": [
        {
          "internalType": "address",
          "name": "",
          "type": "address"
        }
      ],
      "stateMutability": "view",
      "type": "function"
    },
    {
      "inputs": [],
      "name": "randModulus",
      "outputs": [
        {
          "internalType": "uint256",
          "name": "",
          "type": "uint256"
        }
      ],
      "stateMutability": "view",
      "type": "function"
    },
    {
      "inputs": [
        {
          "internalType": "bytes32",
          "name": "role",
          "type": "bytes32"
        },
        {
          "internalType": "address",
          "name": "account",
          "type": "address"
        }
      ],
      "name": "renounceRole",
      "outputs": [],
      "stateMutability": "nonpayable",
      "type": "function"
    },
    {
      "inputs": [
        {
          "internalType": "bytes32",
          "name": "role",
          "type": "bytes32"
        },
        {
          "internalType": "address",
          "name": "account",
          "type": "address"
        }
      ],
      "name": "revokeRole",
      "outputs": [],
      "stateMutability": "nonpayable",
      "type": "function"
    },
    {
      "inputs": [
        {
          "internalType": "address",
          "name": "from",
          "type": "address"
        },
        {
          "internalType": "address",
          "name": "to",
          "type": "address"
        },
        {
          "internalType": "uint256",
          "name": "tokenId",
          "type": "uint256"
        }
      ],
      "name": "safeTransferFrom",
      "outputs": [],
      "stateMutability": "nonpayable",
      "type": "function"
    },
    {
      "inputs": [
        {
          "internalType": "address",
          "name": "from",
          "type": "address"
        },
        {
          "internalType": "address",
          "name": "to",
          "type": "address"
        },
        {
          "internalType": "uint256",
          "name": "tokenId",
          "type": "uint256"
        },
        {
          "internalType": "bytes",
          "name": "data",
          "type": "bytes"
        }
      ],
      "name": "safeTransferFrom",
      "outputs": [],
      "stateMutability": "nonpayable",
      "type": "function"
    },
    {
      "inputs": [
        {
          "internalType": "address",
          "name": "operator",
          "type": "address"
        },
        {
          "internalType": "bool",
          "name": "approved",
          "type": "bool"
        }
      ],
      "name": "setApprovalForAll",
      "outputs": [],
      "stateMutability": "nonpayable",
      "type": "function"
    },
    {
      "inputs": [
        {
          "internalType": "bytes4",
          "name": "interfaceId",
          "type": "bytes4"
        }
      ],
      "name": "supportsInterface",
      "outputs": [
        {
          "internalType": "bool",
          "name": "",
          "type": "bool"
        }
      ],
      "stateMutability": "view",
      "type": "function"
    },
    {
      "inputs": [],
      "name": "symbol",
      "outputs": [
        {
          "internalType": "string",
          "name": "",
          "type": "string"
        }
      ],
      "stateMutability": "view",
      "type": "function"
    },
    {
      "inputs": [
        {
          "internalType": "uint256",
          "name": "index",
          "type": "uint256"
        }
      ],
      "name": "tokenByIndex",
      "outputs": [
        {
          "internalType": "uint256",
          "name": "",
          "type": "uint256"
        }
      ],
      "stateMutability": "view",
      "type": "function"
    },
    {
      "inputs": [
        {
          "internalType": "address",
          "name": "owner",
          "type": "address"
        },
        {
          "internalType": "uint256",
          "name": "index",
          "type": "uint256"
        }
      ],
      "name": "tokenOfOwnerByIndex",
      "outputs": [
        {
          "internalType": "uint256",
          "name": "",
          "type": "uint256"
        }
      ],
      "stateMutability": "view",
      "type": "function"
    },
    {
      "inputs": [
        {
          "internalType": "uint256",
          "name": "tokenId",
          "type": "uint256"
        }
      ],
      "name": "tokenURI",
      "outputs": [
        {
          "internalType": "string",
          "name": "",
          "type": "string"
        }
      ],
      "stateMutability": "view",
      "type": "function"
    },
    {
      "inputs": [],
      "name": "totalSupply",
      "outputs": [
        {
          "internalType": "uint256",
          "name": "",
          "type": "uint256"
        }
      ],
      "stateMutability": "view",
      "type": "function"
    },
    {
      "inputs": [
        {
          "internalType": "address",
          "name": "from",
          "type": "address"
        },
        {
          "internalType": "address",
          "name": "to",
          "type": "address"
        },
        {
          "internalType": "uint256",
          "name": "tokenId",
          "type": "uint256"
        }
      ],
      "name": "transferFrom",
      "outputs": [],
      "stateMutability": "nonpayable",
      "type": "function"
    }
  ],
  "bytecode": "0x6000601155610180604052600561014090815264173539b7b760d91b610160526014906200002e9082620003a9565b503480156200003c57600080fd5b5060405162003e7438038062003e748339810160408190526200005f9162000492565b604051806040016040528060078152602001665043432044414f60c81b815250604051806040016040528060038152602001620312e360ec1b8152506040518060400160405280601781526020017f54455354315043432044414f204d656d6265727368697000000000000000000081525060405180604001604052806005815260200164543150434360d81b8152508160009081620001009190620003a9565b5060016200010f8282620003a9565b5050825160209384012082519284019290922060e08390526101008190524660a0818152604080517f8b73c3c69bb8fe3d512ecc4cf759cc79239f7b179b0ffacaa9a75d522b39400f818901819052818301979097526060810194909452608080850193909352308483018190528151808603909301835260c0948501909152815191909601209052929092526101205250620001cd7f9f2df0fed2c77648de5860a4cc508cd0818c85b8b8a1ab4ceeef8d981c8956a68762000250565b620001f97f3c11d16cbaffd01df69ce1c404f6340ee057498f5f00246190ea54220576a8488662000250565b620002257f8e6595ef9afb2a8f70320f393f567bb7a0e6c4ed483caee30f90cc5fcd6659b48562000250565b6200023260008462000250565b6013620002408382620003a9565b5060125550620005ba9350505050565b6200025c828262000260565b5050565b6000828152600a602090815260408083206001600160a01b038516845290915290205460ff166200025c576000828152600a602090815260408083206001600160a01b03851684529091529020805460ff19166001179055620002c03390565b6001600160a01b0316816001600160a01b0316837f2f8788117e7eff1d82e926ec794901d17c78024a50270940304540a733656f0d60405160405180910390a45050565b634e487b7160e01b600052604160045260246000fd5b600181811c908216806200032f57607f821691505b6020821081036200035057634e487b7160e01b600052602260045260246000fd5b50919050565b601f821115620003a457600081815260208120601f850160051c810160208610156200037f5750805b601f850160051c820191505b81811015620003a0578281556001016200038b565b5050505b505050565b81516001600160401b03811115620003c557620003c562000304565b620003dd81620003d684546200031a565b8462000356565b602080601f831160018114620004155760008415620003fc5750858301515b600019600386901b1c1916600185901b178555620003a0565b600085815260208120601f198616915b82811015620004465788860151825594840194600190910190840162000425565b5085821015620004655787850151600019600388901b60f8161c191681555b5050505050600190811b01905550565b80516001600160a01b03811681146200048d57600080fd5b919050565b60008060008060008060c08789031215620004ac57600080fd5b620004b78762000475565b95506020620004c881890162000475565b9550620004d86040890162000475565b9450620004e86060890162000475565b60808901519094506001600160401b03808211156200050657600080fd5b818a0191508a601f8301126200051b57600080fd5b81518181111562000530576200053062000304565b604051601f8201601f19908116603f011681019083821181831017156200055b576200055b62000304565b816040528281528d868487010111156200057457600080fd5b600093505b8284101562000598578484018601518185018701529285019262000579565b600086848301015280975050505050505060a087015190509295509295509295565b60805160a05160c05160e051610100516101205161386a6200060a60003960006116b601526000611705015260006116e001526000611639015260006116630152600061168d015261386a6000f3fe608060405234801561001057600080fd5b50600436106102de5760003560e01c80635c19a95c11610186578063a217fddf116100e3578063c668286211610097578063d547741f11610071578063d547741f14610665578063d547cfb714610678578063e985e9c51461068057600080fd5b8063c668286214610623578063c87b56dd1461062b578063d53913931461063e57600080fd5b8063b88d4fde116100c8578063b88d4fde146105ea578063bdfeebe4146105fd578063c3cda5201461061057600080fd5b8063a217fddf146105cf578063a22cb465146105d757600080fd5b806387f350b81161013a57806391d148541161011f57806391d148541461057b57806395d89b41146105b45780639ab24eb0146105bc57600080fd5b806387f350b8146105555780638e539e8c1461056857600080fd5b806370a082311161016b57806370a082311461050857806375b238fc1461051b5780637ecebe001461054257600080fd5b80635c19a95c146104e25780636352211e146104f557600080fd5b80632f2ff15d1161023f57806342842e0e116101f35780634f6ccce7116101cd5780634f6ccce71461049057806354ba0f27146104a3578063587cde1e146104b657600080fd5b806342842e0e1461045757806342966c681461046a5780634dc252561461047d57600080fd5b80633644e515116102245780633644e5151461042957806336568abe146104315780633a46b1a81461044457600080fd5b80632f2ff15d146104035780632f745c591461041657600080fd5b806318160ddd1161029657806323b872dd1161027b57806323b872dd146103a6578063248a9ca3146103b9578063282c51f3146103dc57600080fd5b806318160ddd146103955780631b793e641461039d57600080fd5b8063081812fc116102c7578063081812fc14610320578063095ea7b31461034b5780630ab5f32a1461036057600080fd5b806301ffc9a7146102e357806306fdde031461030b575b600080fd5b6102f66102f136600461310d565b6106bc565b60405190151581526020015b60405180910390f35b6103136106cd565b604051610302919061317a565b61033361032e36600461318d565b61075f565b6040516001600160a01b039091168152602001610302565b61035e6103593660046131c2565b610786565b005b6103877f8e6595ef9afb2a8f70320f393f567bb7a0e6c4ed483caee30f90cc5fcd6659b481565b604051908152602001610302565b600854610387565b61038760125481565b61035e6103b43660046131ec565b6108bc565b6103876103c736600461318d565b6000908152600a602052604090206001015490565b6103877f3c11d16cbaffd01df69ce1c404f6340ee057498f5f00246190ea54220576a84881565b61035e610411366004613228565b610934565b6103876104243660046131c2565b610959565b610387610a01565b61035e61043f366004613228565b610a10565b6103876104523660046131c2565b610a9c565b61035e6104653660046131ec565b610ac5565b61035e61047836600461318d565b610ae0565b61035e61048b3660046132e0565b610b71565b61038761049e36600461318d565b610ba7565b6103876104b1366004613329565b610c4b565b6103336104c4366004613329565b6001600160a01b039081166000908152600b60205260409020541690565b61035e6104f0366004613329565b610cc6565b61033361050336600461318d565b610cd1565b610387610516366004613329565b610d36565b6103877f1effbbff9c66c5e59634f24fe842750c60d18891155c32dd155fc2d661a4c86d81565b610387610550366004613329565b610dd0565b61035e6105633660046132e0565b610dee565b61038761057636600461318d565b610e24565b6102f6610589366004613228565b6000918252600a602090815260408084206001600160a01b0393909316845291905290205460ff1690565b610313610e80565b6103876105ca366004613329565b610e8f565b610387600081565b61035e6105e5366004613344565b610ebf565b61035e6105f8366004613380565b610eca565b61035e61060b36600461318d565b610f48565b61035e61061e3660046133fc565b610f78565b6103136110ae565b61031361063936600461318d565b61113c565b6103877f9f2df0fed2c77648de5860a4cc508cd0818c85b8b8a1ab4ceeef8d981c8956a681565b61035e610673366004613228565b6111b1565b6103136111d6565b6102f661068e36600461345c565b6001600160a01b03918216600090815260056020908152604080832093909416825291909152205460ff1690565b60006106c7826111e3565b92915050565b6060600080546106dc90613486565b80601f016020809104026020016040519081016040528092919081815260200182805461070890613486565b80156107555780601f1061072a57610100808354040283529160200191610755565b820191906000526020600020905b81548152906001019060200180831161073857829003601f168201915b5050505050905090565b600061076a82611221565b506000908152600460205260409020546001600160a01b031690565b600061079182610cd1565b9050806001600160a01b0316836001600160a01b03160361081f5760405162461bcd60e51b815260206004820152602160248201527f4552433732313a20617070726f76616c20746f2063757272656e74206f776e6560448201527f720000000000000000000000000000000000000000000000000000000000000060648201526084015b60405180910390fd5b336001600160a01b038216148061083b575061083b813361068e565b6108ad5760405162461bcd60e51b815260206004820152603d60248201527f4552433732313a20617070726f76652063616c6c6572206973206e6f7420746f60448201527f6b656e206f776e6572206f7220617070726f76656420666f7220616c6c0000006064820152608401610816565b6108b78383611285565b505050565b6108c7335b826112f3565b6109295760405162461bcd60e51b815260206004820152602d60248201527f4552433732313a2063616c6c6572206973206e6f7420746f6b656e206f776e6560448201526c1c881bdc88185c1c1c9bdd9959609a1b6064820152608401610816565b6108b7838383611372565b6000828152600a602052604090206001015461094f81611580565b6108b7838361158a565b600061096483610d36565b82106109d85760405162461bcd60e51b815260206004820152602b60248201527f455243373231456e756d657261626c653a206f776e657220696e646578206f7560448201527f74206f6620626f756e64730000000000000000000000000000000000000000006064820152608401610816565b506001600160a01b03919091166000908152600660209081526040808320938352929052205490565b6000610a0b61162c565b905090565b6001600160a01b0381163314610a8e5760405162461bcd60e51b815260206004820152602f60248201527f416363657373436f6e74726f6c3a2063616e206f6e6c792072656e6f756e636560448201527f20726f6c657320666f722073656c6600000000000000000000000000000000006064820152608401610816565b610a988282611753565b5050565b6001600160a01b0382166000908152600c60205260408120610abe90836117d6565b9392505050565b6108b783838360405180602001604052806000815250610eca565b610b0a7f3c11d16cbaffd01df69ce1c404f6340ee057498f5f00246190ea54220576a84833610589565b80610b195750610b19336108c1565b610b655760405162461bcd60e51b815260206004820152601260248201527f43616c6c65722063616e6e6f74206275726e00000000000000000000000000006044820152606401610816565b610b6e816118f2565b50565b7f8e6595ef9afb2a8f70320f393f567bb7a0e6c4ed483caee30f90cc5fcd6659b4610b9b81611580565b60146108b78382613508565b6000610bb260085490565b8210610c265760405162461bcd60e51b815260206004820152602c60248201527f455243373231456e756d657261626c653a20676c6f62616c20696e646578206f60448201527f7574206f6620626f756e647300000000000000000000000000000000000000006064820152608401610816565b60088281548110610c3957610c396135c8565b90600052602060002001549050919050565b60007f9f2df0fed2c77648de5860a4cc508cd0818c85b8b8a1ab4ceeef8d981c8956a6610c7781611580565b610c85600f80546001019055565b6000610c90600f5490565b9050610c9a61199f565b600082815260106020526040902055610cb38480611a0d565b610cbd8482611a7f565b91505b50919050565b33610a988183611a0d565b6000818152600260205260408120546001600160a01b0316806106c75760405162461bcd60e51b815260206004820152601860248201527f4552433732313a20696e76616c696420746f6b656e20494400000000000000006044820152606401610816565b60006001600160a01b038216610db45760405162461bcd60e51b815260206004820152602960248201527f4552433732313a2061646472657373207a65726f206973206e6f74206120766160448201527f6c6964206f776e657200000000000000000000000000000000000000000000006064820152608401610816565b506001600160a01b031660009081526003602052604090205490565b6001600160a01b0381166000908152600e60205260408120546106c7565b7f8e6595ef9afb2a8f70320f393f567bb7a0e6c4ed483caee30f90cc5fcd6659b4610e1881611580565b60136108b78382613508565b6000438210610e755760405162461bcd60e51b815260206004820152601a60248201527f566f7465733a20626c6f636b206e6f7420796574206d696e65640000000000006044820152606401610816565b6106c7600d836117d6565b6060600180546106dc90613486565b6001600160a01b0381166000908152600c60205260408120610eb090611a99565b6001600160e01b031692915050565b610a98338383611ad3565b610ed433836112f3565b610f365760405162461bcd60e51b815260206004820152602d60248201527f4552433732313a2063616c6c6572206973206e6f7420746f6b656e206f776e6560448201526c1c881bdc88185c1c1c9bdd9959609a1b6064820152608401610816565b610f4284848484611ba1565b50505050565b7f8e6595ef9afb2a8f70320f393f567bb7a0e6c4ed483caee30f90cc5fcd6659b4610f7281611580565b50601255565b83421115610fc85760405162461bcd60e51b815260206004820152601860248201527f566f7465733a207369676e6174757265206578706972656400000000000000006044820152606401610816565b604080517fe48329057bfd03d55e49b547132e39cffd9c1820ad7b9d4c5307691425d15adf60208201526001600160a01b0388169181019190915260608101869052608081018590526000906110429061103a9060a00160405160208183030381529060405280519060200120611c1f565b858585611c88565b905061104d81611cb0565b861461109b5760405162461bcd60e51b815260206004820152601460248201527f566f7465733a20696e76616c6964206e6f6e63650000000000000000000000006044820152606401610816565b6110a58188611a0d565b50505050505050565b601480546110bb90613486565b80601f01602080910402602001604051908101604052809291908181526020018280546110e790613486565b80156111345780601f1061110957610100808354040283529160200191611134565b820191906000526020600020905b81548152906001019060200180831161111757829003601f168201915b505050505081565b606061114782611221565b60006013805461115690613486565b90501161117257604051806020016040528060008152506106c7565b60136010600084815260200190815260200160002054601460405160200161119c93929190613651565b60405160208183030381529060405292915050565b6000828152600a60205260409020600101546111cc81611580565b6108b78383611753565b601380546110bb90613486565b60006001600160e01b031982167f7965db0b0000000000000000000000000000000000000000000000000000000014806106c757506106c782611cd6565b6000818152600260205260409020546001600160a01b0316610b6e5760405162461bcd60e51b815260206004820152601860248201527f4552433732313a20696e76616c696420746f6b656e20494400000000000000006044820152606401610816565b600081815260046020526040902080546001600160a01b0319166001600160a01b03841690811790915581906112ba82610cd1565b6001600160a01b03167f8c5be1e5ebec7d5bd14f71427d1e84f3dd0314c0f7b2291e5b200ac8c7c3b92560405160405180910390a45050565b6000806112ff83610cd1565b9050806001600160a01b0316846001600160a01b0316148061134657506001600160a01b0380821660009081526005602090815260408083209388168352929052205460ff165b8061136a5750836001600160a01b031661135f8461075f565b6001600160a01b0316145b949350505050565b826001600160a01b031661138582610cd1565b6001600160a01b0316146113e95760405162461bcd60e51b815260206004820152602560248201527f4552433732313a207472616e736665722066726f6d20696e636f72726563742060448201526437bbb732b960d91b6064820152608401610816565b6001600160a01b0382166114645760405162461bcd60e51b8152602060048201526024808201527f4552433732313a207472616e7366657220746f20746865207a65726f2061646460448201527f72657373000000000000000000000000000000000000000000000000000000006064820152608401610816565b6114718383836001611d14565b826001600160a01b031661148482610cd1565b6001600160a01b0316146114e85760405162461bcd60e51b815260206004820152602560248201527f4552433732313a207472616e736665722066726f6d20696e636f72726563742060448201526437bbb732b960d91b6064820152608401610816565b600081815260046020908152604080832080546001600160a01b03199081169091556001600160a01b0387811680865260038552838620805460001901905590871680865283862080546001019055868652600290945282852080549092168417909155905184937fddf252ad1be2c89b69c2b068fc378daa952ba7f163c4a11628f55a4df523b3ef91a46108b78383836001611df1565b610b6e8133611e08565b6000828152600a602090815260408083206001600160a01b038516845290915290205460ff16610a98576000828152600a602090815260408083206001600160a01b03851684529091529020805460ff191660011790556115e83390565b6001600160a01b0316816001600160a01b0316837f2f8788117e7eff1d82e926ec794901d17c78024a50270940304540a733656f0d60405160405180910390a45050565b6000306001600160a01b037f00000000000000000000000000000000000000000000000000000000000000001614801561168557507f000000000000000000000000000000000000000000000000000000000000000046145b156116af57507f000000000000000000000000000000000000000000000000000000000000000090565b50604080517f00000000000000000000000000000000000000000000000000000000000000006020808301919091527f0000000000000000000000000000000000000000000000000000000000000000828401527f000000000000000000000000000000000000000000000000000000000000000060608301524660808301523060a0808401919091528351808403909101815260c0909201909252805191012090565b6000828152600a602090815260408083206001600160a01b038516845290915290205460ff1615610a98576000828152600a602090815260408083206001600160a01b0385168085529252808320805460ff1916905551339285917ff6391f5c32d9c69d2a47ea670b442974b53935d1edc7fd64eb21e047a839171b9190a45050565b60004382106118275760405162461bcd60e51b815260206004820181905260248201527f436865636b706f696e74733a20626c6f636b206e6f7420796574206d696e65646044820152606401610816565b600061183283611e7d565b8454909150600081600581111561189057600061184e84611efd565b611858908561368d565b60008981526020902090915081015463ffffffff90811690861610156118805780915061188e565b61188b8160016136a0565b92505b505b600061189e88868585611fe5565b905080156118da576118c3886118b560018461368d565b600091825260209091200190565b5464010000000090046001600160e01b03166118dd565b60005b6001600160e01b031698975050505050505050565b60006118fd82610cd1565b905061190d816000846001611d14565b61191682610cd1565b600083815260046020908152604080832080546001600160a01b03199081169091556001600160a01b0385168085526003845282852080546000190190558785526002909352818420805490911690555192935084927fddf252ad1be2c89b69c2b068fc378daa952ba7f163c4a11628f55a4df523b3ef908390a4610a98816000846001611df1565b60118054600091826119b0836136b3565b9091555050601254601154604080514260208201526bffffffffffffffffffffffff193360601b169181019190915260548101919091526074016040516020818303038152906040528051906020012060001c610a0b91906136e2565b6001600160a01b038281166000818152600b602052604080822080548686166001600160a01b0319821681179092559151919094169392849290917f3134e8a2e6d97e929a7e54011ea5485d7d196dd5f0ba4d4ef95803e8e3fc257f9190a46108b78183611a7a86612043565b61204e565b610a9882826040518060200160405280600081525061218b565b80546000908015611aca57611ab3836118b560018461368d565b5464010000000090046001600160e01b0316610abe565b60009392505050565b816001600160a01b0316836001600160a01b031603611b345760405162461bcd60e51b815260206004820152601960248201527f4552433732313a20617070726f766520746f2063616c6c6572000000000000006044820152606401610816565b6001600160a01b03838116600081815260056020908152604080832094871680845294825291829020805460ff191686151590811790915591519182527f17307eab39ab6107e8899845ad3d59bd9653f200f220920489ca2b5937696c31910160405180910390a3505050565b611bac848484611372565b611bb884848484612209565b610f425760405162461bcd60e51b815260206004820152603260248201527f4552433732313a207472616e7366657220746f206e6f6e20455243373231526560448201527131b2b4bb32b91034b6b83632b6b2b73a32b960711b6064820152608401610816565b60006106c7611c2c61162c565b836040517f19010000000000000000000000000000000000000000000000000000000000006020820152602281018390526042810182905260009060620160405160208183030381529060405280519060200120905092915050565b6000806000611c9987878787612352565b91509150611ca681612416565b5095945050505050565b6001600160a01b0381166000908152600e60205260409020805460018101825590610cc0565b60006001600160e01b031982167f780e9d630000000000000000000000000000000000000000000000000000000014806106c757506106c78261257b565b6001600160a01b0384161580611d3157506001600160a01b038316155b611d7d5760405162461bcd60e51b815260206004820152601e60248201527f4572723a20746f6b656e207472616e7366657220697320424c4f434b454400006044820152606401610816565b6001600160a01b0383161580611d995750611d9783610d36565b155b611de55760405162461bcd60e51b815260206004820152601c60248201527f4572723a20796f7520616c7265616479206f776e206120746f6b656e000000006044820152606401610816565b610f4284848484612616565b611dfc84848361275e565b610f42848484846127ce565b6000828152600a602090815260408083206001600160a01b038516845290915290205460ff16610a9857611e3b816127de565b611e468360206127f0565b604051602001611e579291906136f6565b60408051601f198184030181529082905262461bcd60e51b82526108169160040161317a565b600063ffffffff821115611ef95760405162461bcd60e51b815260206004820152602660248201527f53616665436173743a2076616c756520646f65736e27742066697420696e203360448201527f32206269747300000000000000000000000000000000000000000000000000006064820152608401610816565b5090565b600081600003611f0f57506000919050565b60006001611f1c846129d1565b901c6001901b90506001818481611f3557611f356136cc565b048201901c90506001818481611f4d57611f4d6136cc565b048201901c90506001818481611f6557611f656136cc565b048201901c90506001818481611f7d57611f7d6136cc565b048201901c90506001818481611f9557611f956136cc565b048201901c90506001818481611fad57611fad6136cc565b048201901c90506001818481611fc557611fc56136cc565b048201901c9050610abe81828581611fdf57611fdf6136cc565b04612a65565b60005b8183101561203b576000611ffc8484612a7b565b60008781526020902090915063ffffffff86169082015463ffffffff16111561202757809250612035565b6120328160016136a0565b93505b50611fe8565b509392505050565b60006106c782610d36565b816001600160a01b0316836001600160a01b0316141580156120705750600081115b156108b7576001600160a01b038316156120fe576001600160a01b0383166000908152600c6020526040812081906120ab90612a9685612aa2565b91509150846001600160a01b03167fdec2bacdd2f05b59de34da9b523dff8be42e5e38e818c82fdb0bae774387a72483836040516120f3929190918252602082015260400190565b60405180910390a250505b6001600160a01b038216156108b7576001600160a01b0382166000908152600c60205260408120819061213490612ada85612aa2565b91509150836001600160a01b03167fdec2bacdd2f05b59de34da9b523dff8be42e5e38e818c82fdb0bae774387a724838360405161217c929190918252602082015260400190565b60405180910390a25050505050565b6121958383612ae6565b6121a26000848484612209565b6108b75760405162461bcd60e51b815260206004820152603260248201527f4552433732313a207472616e7366657220746f206e6f6e20455243373231526560448201527131b2b4bb32b91034b6b83632b6b2b73a32b960711b6064820152608401610816565b60006001600160a01b0384163b1561234a57604051630a85bd0160e11b81526001600160a01b0385169063150b7a029061224d903390899088908890600401613777565b6020604051808303816000875af1925050508015612288575060408051601f3d908101601f19168201909252612285918101906137a9565b60015b612330573d8080156122b6576040519150601f19603f3d011682016040523d82523d6000602084013e6122bb565b606091505b5080516000036123285760405162461bcd60e51b815260206004820152603260248201527f4552433732313a207472616e7366657220746f206e6f6e20455243373231526560448201527131b2b4bb32b91034b6b83632b6b2b73a32b960711b6064820152608401610816565b805181602001fd5b6001600160e01b031916630a85bd0160e11b14905061136a565b50600161136a565b6000807f7fffffffffffffffffffffffffffffff5d576e7357a4501ddfe92f46681b20a0831115612389575060009050600361240d565b6040805160008082526020820180845289905260ff881692820192909252606081018690526080810185905260019060a0016020604051602081039080840390855afa1580156123dd573d6000803e3d6000fd5b5050604051601f1901519150506001600160a01b0381166124065760006001925092505061240d565b9150600090505b94509492505050565b600081600481111561242a5761242a6137c6565b036124325750565b6001816004811115612446576124466137c6565b036124935760405162461bcd60e51b815260206004820152601860248201527f45434453413a20696e76616c6964207369676e617475726500000000000000006044820152606401610816565b60028160048111156124a7576124a76137c6565b036124f45760405162461bcd60e51b815260206004820152601f60248201527f45434453413a20696e76616c6964207369676e6174757265206c656e677468006044820152606401610816565b6003816004811115612508576125086137c6565b03610b6e5760405162461bcd60e51b815260206004820152602260248201527f45434453413a20696e76616c6964207369676e6174757265202773272076616c60448201527f75650000000000000000000000000000000000000000000000000000000000006064820152608401610816565b60006001600160e01b031982167f80ac58cd0000000000000000000000000000000000000000000000000000000014806125de57506001600160e01b031982167f5b5e139f00000000000000000000000000000000000000000000000000000000145b806106c757507f01ffc9a7000000000000000000000000000000000000000000000000000000006001600160e01b03198316146106c7565b61262284848484612c89565b60018111156126995760405162461bcd60e51b815260206004820152603560248201527f455243373231456e756d657261626c653a20636f6e736563757469766520747260448201527f616e7366657273206e6f7420737570706f7274656400000000000000000000006064820152608401610816565b816001600160a01b0385166126f5576126f081600880546000838152600960205260408120829055600182018355919091527ff3f7a9fe364faab93b216da50a3214154f22a0a2b415b23a84c8169e8b636ee30155565b612718565b836001600160a01b0316856001600160a01b031614612718576127188582612d11565b6001600160a01b0384166127345761272f81612dae565b612757565b846001600160a01b0316846001600160a01b031614612757576127578482612e5d565b5050505050565b6001600160a01b03831661277d5761277a600d612ada83612aa2565b50505b6001600160a01b03821661279c57612799600d612a9683612aa2565b50505b6001600160a01b038381166000908152600b60205260408082205485841683529120546108b79291821691168361204e565b6127d984848361275e565b610f42565b60606106c76001600160a01b03831660145b606060006127ff8360026137dc565b61280a9060026136a0565b67ffffffffffffffff81111561282257612822613254565b6040519080825280601f01601f19166020018201604052801561284c576020820181803683370190505b5090507f300000000000000000000000000000000000000000000000000000000000000081600081518110612883576128836135c8565b60200101906001600160f81b031916908160001a9053507f7800000000000000000000000000000000000000000000000000000000000000816001815181106128ce576128ce6135c8565b60200101906001600160f81b031916908160001a90535060006128f28460026137dc565b6128fd9060016136a0565b90505b6001811115612982577f303132333435363738396162636465660000000000000000000000000000000085600f166010811061293e5761293e6135c8565b1a60f81b828281518110612954576129546135c8565b60200101906001600160f81b031916908160001a90535060049490941c9361297b816137f3565b9050612900565b508315610abe5760405162461bcd60e51b815260206004820181905260248201527f537472696e67733a20686578206c656e67746820696e73756666696369656e746044820152606401610816565b600080608083901c156129e657608092831c92015b604083901c156129f857604092831c92015b602083901c15612a0a57602092831c92015b601083901c15612a1c57601092831c92015b600883901c15612a2e57600892831c92015b600483901c15612a4057600492831c92015b600283901c15612a5257600292831c92015b600183901c156106c75760010192915050565b6000818310612a745781610abe565b5090919050565b6000612a8a600284841861380a565b610abe908484166136a0565b6000610abe828461368d565b600080612acd85612ac8612ab588611a99565b6001600160e01b0316868863ffffffff16565b612ea1565b915091505b935093915050565b6000610abe82846136a0565b6001600160a01b038216612b3c5760405162461bcd60e51b815260206004820181905260248201527f4552433732313a206d696e7420746f20746865207a65726f20616464726573736044820152606401610816565b6000818152600260205260409020546001600160a01b031615612ba15760405162461bcd60e51b815260206004820152601c60248201527f4552433732313a20746f6b656e20616c7265616479206d696e746564000000006044820152606401610816565b612baf600083836001611d14565b6000818152600260205260409020546001600160a01b031615612c145760405162461bcd60e51b815260206004820152601c60248201527f4552433732313a20746f6b656e20616c7265616479206d696e746564000000006044820152606401610816565b6001600160a01b038216600081815260036020908152604080832080546001019055848352600290915280822080546001600160a01b0319168417905551839291907fddf252ad1be2c89b69c2b068fc378daa952ba7f163c4a11628f55a4df523b3ef908290a4610a98600083836001611df1565b6001811115610f42576001600160a01b03841615612ccf576001600160a01b03841660009081526003602052604081208054839290612cc990849061368d565b90915550505b6001600160a01b03831615610f42576001600160a01b03831660009081526003602052604081208054839290612d069084906136a0565b909155505050505050565b60006001612d1e84610d36565b612d28919061368d565b600083815260076020526040902054909150808214612d7b576001600160a01b03841660009081526006602090815260408083208584528252808320548484528184208190558352600790915290208190555b5060009182526007602090815260408084208490556001600160a01b039094168352600681528383209183525290812055565b600854600090612dc09060019061368d565b60008381526009602052604081205460088054939450909284908110612de857612de86135c8565b906000526020600020015490508060088381548110612e0957612e096135c8565b6000918252602080832090910192909255828152600990915260408082208490558582528120556008805480612e4157612e4161381e565b6001900381819060005260206000200160009055905550505050565b6000612e6883610d36565b6001600160a01b039093166000908152600660209081526040808320868452825280832085905593825260079052919091209190915550565b600080612ebf84612eb143611e7d565b612eba86612ed5565b612f54565b6001600160e01b03918216969116945092505050565b60006001600160e01b03821115611ef95760405162461bcd60e51b815260206004820152602760248201527f53616665436173743a2076616c756520646f65736e27742066697420696e203260448201527f32342062697473000000000000000000000000000000000000000000000000006064820152608401610816565b82546000908190801561309d576000612f72876118b560018561368d565b60408051808201909152905463ffffffff8082168084526401000000009092046001600160e01b031660208401529192509087161015612ff45760405162461bcd60e51b815260206004820152601760248201527f436865636b706f696e743a20696e76616c6964206b65790000000000000000006044820152606401610816565b805163ffffffff80881691160361303d5784613015886118b560018661368d565b80546001600160e01b03929092166401000000000263ffffffff90921691909117905561308d565b6040805180820190915263ffffffff80881682526001600160e01b0380881660208085019182528b54600181018d5560008d81529190912094519151909216640100000000029216919091179101555b602001519250839150612ad29050565b50506040805180820190915263ffffffff80851682526001600160e01b0380851660208085019182528854600181018a5560008a815291822095519251909316640100000000029190931617920191909155905081612ad2565b6001600160e01b031981168114610b6e57600080fd5b60006020828403121561311f57600080fd5b8135610abe816130f7565b60005b8381101561314557818101518382015260200161312d565b50506000910152565b6000815180845261316681602086016020860161312a565b601f01601f19169290920160200192915050565b602081526000610abe602083018461314e565b60006020828403121561319f57600080fd5b5035919050565b80356001600160a01b03811681146131bd57600080fd5b919050565b600080604083850312156131d557600080fd5b6131de836131a6565b946020939093013593505050565b60008060006060848603121561320157600080fd5b61320a846131a6565b9250613218602085016131a6565b9150604084013590509250925092565b6000806040838503121561323b57600080fd5b8235915061324b602084016131a6565b90509250929050565b634e487b7160e01b600052604160045260246000fd5b600067ffffffffffffffff8084111561328557613285613254565b604051601f8501601f19908116603f011681019082821181831017156132ad576132ad613254565b816040528093508581528686860111156132c657600080fd5b858560208301376000602087830101525050509392505050565b6000602082840312156132f257600080fd5b813567ffffffffffffffff81111561330957600080fd5b8201601f8101841361331a57600080fd5b61136a8482356020840161326a565b60006020828403121561333b57600080fd5b610abe826131a6565b6000806040838503121561335757600080fd5b613360836131a6565b91506020830135801515811461337557600080fd5b809150509250929050565b6000806000806080858703121561339657600080fd5b61339f856131a6565b93506133ad602086016131a6565b925060408501359150606085013567ffffffffffffffff8111156133d057600080fd5b8501601f810187136133e157600080fd5b6133f08782356020840161326a565b91505092959194509250565b60008060008060008060c0878903121561341557600080fd5b61341e876131a6565b95506020870135945060408701359350606087013560ff8116811461344257600080fd5b9598949750929560808101359460a0909101359350915050565b6000806040838503121561346f57600080fd5b613478836131a6565b915061324b602084016131a6565b600181811c9082168061349a57607f821691505b602082108103610cc057634e487b7160e01b600052602260045260246000fd5b601f8211156108b757600081815260208120601f850160051c810160208610156134e15750805b601f850160051c820191505b81811015613500578281556001016134ed565b505050505050565b815167ffffffffffffffff81111561352257613522613254565b613536816135308454613486565b846134ba565b602080601f83116001811461356b57600084156135535750858301515b600019600386901b1c1916600185901b178555613500565b600085815260208120601f198616915b8281101561359a5788860151825594840194600190910190840161357b565b50858210156135b85787850151600019600388901b60f8161c191681555b5050505050600190811b01905550565b634e487b7160e01b600052603260045260246000fd5b600081546135eb81613486565b60018281168015613603576001811461361857613647565b60ff1984168752821515830287019450613647565b8560005260208060002060005b8581101561363e5781548a820152908401908201613625565b50505082870194505b5050505092915050565b600061365d82866135de565b84815261366d60208201856135de565b9695505050505050565b634e487b7160e01b600052601160045260246000fd5b818103818111156106c7576106c7613677565b808201808211156106c7576106c7613677565b6000600182016136c5576136c5613677565b5060010190565b634e487b7160e01b600052601260045260246000fd5b6000826136f1576136f16136cc565b500690565b7f416363657373436f6e74726f6c3a206163636f756e742000000000000000000081526000835161372e81601785016020880161312a565b7f206973206d697373696e6720726f6c6520000000000000000000000000000000601791840191820152835161376b81602884016020880161312a565b01602801949350505050565b60006001600160a01b0380871683528086166020840152508360408301526080606083015261366d608083018461314e565b6000602082840312156137bb57600080fd5b8151610abe816130f7565b634e487b7160e01b600052602160045260246000fd5b80820281158282048414176106c7576106c7613677565b60008161380257613802613677565b506000190190565b600082613819576138196136cc565b500490565b634e487b7160e01b600052603160045260246000fdfea264697066735822122050736cf1bb135e9faffc4c06e14858b0dd4f81beea077f32f91a05f0e9ece4e764736f6c63430008110033",
  "linkReferences": {},
  "deployedLinkReferences": {}
}