{
  "_format": "hh-sol-artifact-1",
  "contractName": "Verifier",
  "sourceName": "contracts/verifier.sol",
  "abi": [
    {
      "inputs": [
        {
          "components": [
            {
              "components": [
                {
                  "internalType": "uint256",
                  "name": "X",
                  "type": "uint256"
                },
                {
                  "internalType": "uint256",
                  "name": "Y",
                  "type": "uint256"
                }
              ],
              "internalType": "struct Pairing.G1Point",
              "name": "a",
              "type": "tuple"
            },
            {
              "components": [
                {
                  "internalType": "uint256[2]",
                  "name": "X",
                  "type": "uint256[2]"
                },
                {
                  "internalType": "uint256[2]",
                  "name": "Y",
                  "type": "uint256[2]"
                }
              ],
              "internalType": "struct Pairing.G2Point",
              "name": "b",
              "type": "tuple"
            },
            {
              "components": [
                {
                  "internalType": "uint256",
                  "name": "X",
                  "type": "uint256"
                },
                {
                  "internalType": "uint256",
                  "name": "Y",
                  "type": "uint256"
                }
              ],
              "internalType": "struct Pairing.G1Point",
              "name": "c",
              "type": "tuple"
            }
          ],
          "internalType": "struct Verifier.Proof",
          "name": "proof",
          "type": "tuple"
        },
        {
          "internalType": "uint256[8]",
          "name": "input",
          "type": "uint256[8]"
        }
      ],
      "name": "verifyTx",
      "outputs": [
        {
          "internalType": "bool",
          "name": "r",
          "type": "bool"
        }
      ],
      "stateMutability": "view",
      "type": "function"
    }
  ],
  "bytecode": "0x608060405234801561001057600080fd5b506112f9806100206000396000f3fe608060405234801561001057600080fd5b506004361061002b5760003560e01c8063f1942cd114610030575b600080fd5b61004361003e366004611168565b610057565b604051901515815260200160405180910390f35b6040805160088082526101208201909252600091829190602082016101008036833701905050905060005b60088110156100d15783816008811061009d5761009d61121f565b60200201518282815181106100b4576100b461121f565b6020908102919091010152806100c98161124b565b915050610082565b506100dc81856100f9565b6000036100ed5760019150506100f3565b60009150505b92915050565b60007f30644e72e131a029b85045b68181585d2833e84879b9709143e1f593f00000018161012561027c565b90508060800151518551600161013b9190611264565b1461014557600080fd5b604080518082019091526000808252602082018190525b86518110156101f357838782815181106101785761017861121f565b60200260200101511061018a57600080fd5b6101df826101da85608001518460016101a39190611264565b815181106101b3576101b361121f565b60200260200101518a85815181106101cd576101cd61121f565b6020026020010151610959565b6109b7565b9150806101eb8161124b565b91505061015c565b5061021c81836080015160008151811061020f5761020f61121f565b60200260200101516109b7565b90506102608560000151866020015161023484610a0d565b85604001516102468a60400151610a0d565b6060880151885161025690610a0d565b8960200151610aac565b61027057600193505050506100f3565b50600095945050505050565b610284610f18565b6040805180820182527f147d100c69fcf500ba58f030ca544244f65363fdd0c44556efd226f5ecb0705781527f300fdb79d8c96574dbf0b25b2f806d7a24a2f3a7daaa25be9d15c21d9c191f466020808301919091529083528151608080820184527f152a3740b3975d919dc3ed303281420dcd427c05abf95dbc7a2b4d2358dbb1ad8285019081527f203db2de28ee5358571e4d0658604c7133c5105da85da0201b0f40e74e3fd677606080850191909152908352845180860186527f1bf8e68075c07bbff599e724a2d7a66055d4d28a42423bc44e1b7c6f69d2f42d81527f13d1e512415f345bdf8b549ce67b96741e6f1531fec1c0cd9e232740399fa5ef818601528385015285840192909252835180820185527f2690e9f5e29087b7e9ff1577f6ac7282445860bd238d8c8439efae99969c15018186019081527f04f98b5645796105c7479396c5ccfe1a19547cb3f9e0b8c52178bdcad3087d73828501528152845180860186527f06c020f870777ababa520608d4c58b2ceb82bfc9a4fd9fdf2f4fb0138d86c38481527f014aa19e400381cce2f85c72edf6b25de43556903d9748e6fff7124b630278e6818601528185015285850152835190810184527f1b483873b94017a292d726eaa380b552b102f9c45561ef39844173379780fa678185019081527f27733d70f2c8c457554aa9f4b6ae37f81ecf5cb79de52ea3dd449783555f934d828401528152835180850185527f15e820ee812fcb7850cb6af1284f16fc7b689c6697a487682f06b45b9a05e9f381527f1288473a85914198b807bbb3e12c707b7c226214d4cbb9104d14e20067384c8d818501528184015290840152815160098082526101408201909352919082015b604080518082019091526000808252602082015281526020019060019003908161050057505060808201908152604080518082019091527f146ebb77468ce7548e7fd7f735f23838c5324ff3a19b52a5d801a00d6db47aef81527f03837c194abe14780d46e1e7b3d876bf50b9ab64af29d293bdcdfc28666583936020820152905180516000906105935761059361121f565b602002602001018190525060405180604001604052807f1031ecdf487a62fd768ac31eb30660c54e090229ea76ea99496ef981ef28d6e881526020017f0c1291afa11202c4165080b2550b4b34c2153c03d1ecb21b44f451c5e6c845fc815250816080015160018151811061060a5761060a61121f565b602002602001018190525060405180604001604052807f24dec020698be43403eed407bd3f0db6c58a3ebdf3d74e1a5749791e0d76bbdf81526020017f14015022732b64b1c20b2c588fb60e58b5d14158feddb08ae9dadffc36936e4181525081608001516002815181106106815761068161121f565b602002602001018190525060405180604001604052807f30322793919878525ac0da693701249aac49dfc47de94f2d38e616c2944ad93381526020017f02b6ea409972eeb9a4ff1e0c82e0f604c1d1bbb2e121e34664621d03a53c421981525081608001516003815181106106f8576106f861121f565b602002602001018190525060405180604001604052807f125da52435c594bb6e6e8a31c136383215138528acac1f1eed5460d040b024be81526020017f168d2e1655d9f27e86df4ee4bb3331666bdeddf213e6d3947f139b4416eb2be6815250816080015160048151811061076f5761076f61121f565b602002602001018190525060405180604001604052807f2201d27c7b7cf1a09c57fddd3f9794d2da59317812758374d301199cdb44cdd081526020017f101ca415d5138b523d66cae7c861d433835a5d7128996d84082681cfea8d2e1081525081608001516005815181106107e6576107e661121f565b602002602001018190525060405180604001604052807f07081b141a80763a67449fb490819b66e49706d32b74e3f74511870c8e3f93c781526020017f08cc385da3f8cf5b9f113d910e8ffc369a6be9b0f516368becdb7daaa90bcc2a815250816080015160068151811061085d5761085d61121f565b602002602001018190525060405180604001604052807f1c5962cbb317b0cd8e61a604adff2f52b8ea0eb55233b9ff723621bff12e4e3181526020017f03e34ca835c05a4ebf488db18f0a24ced5b6eeded1dc05db29656e501fbb2b5a81525081608001516007815181106108d4576108d461121f565b602002602001018190525060405180604001604052807f26f269145c2cadace702a04cc065832994a25e9d5cd834af16a256e331b3d93c81526020017f0e4f7fe8a025c75b575627af722a14cb493d010d42087bf2f994cf5663cc36ed815250816080015160088151811061094b5761094b61121f565b602002602001018190525090565b6040805180820190915260008082526020820152610975610f69565b835181526020808501519082015260408101839052600060608360808460076107d05a03fa905080806109a457fe5b50806109af57600080fd5b505092915050565b60408051808201909152600080825260208201526109d3610f87565b8351815260208085015181830152835160408301528301516060808301919091526000908360c08460066107d05a03fa905080806109a457fe5b604080518082019091526000808252602082015281517f30644e72e131a029b85045b68181585d97816a916871ca8d3c208c16d87cfd4790158015610a5457506020830151155b15610a745750506040805180820190915260008082526020820152919050565b604051806040016040528084600001518152602001828560200151610a999190611277565b610aa39084611299565b90529392505050565b60408051600480825260a08201909252600091829190816020015b6040805180820190915260008082526020820152815260200190600190039081610ac757505060408051600480825260a0820190925291925060009190602082015b610b11610fa5565b815260200190600190039081610b095790505090508a82600081518110610b3a57610b3a61121f565b60200260200101819052508882600181518110610b5957610b5961121f565b60200260200101819052508682600281518110610b7857610b7861121f565b60200260200101819052508482600381518110610b9757610b9761121f565b60200260200101819052508981600081518110610bb657610bb661121f565b60200260200101819052508781600181518110610bd557610bd561121f565b60200260200101819052508581600281518110610bf457610bf461121f565b60200260200101819052508381600381518110610c1357610c1361121f565b6020026020010181905250610c288282610c37565b9b9a5050505050505050505050565b60008151835114610c4757600080fd5b82516000610c568260066112ac565b905060008167ffffffffffffffff811115610c7357610c73611006565b604051908082528060200260200182016040528015610c9c578160200160208202803683370190505b50905060005b83811015610ed757868181518110610cbc57610cbc61121f565b60200260200101516000015182826006610cd691906112ac565b610ce1906000611264565b81518110610cf157610cf161121f565b602002602001018181525050868181518110610d0f57610d0f61121f565b60200260200101516020015182826006610d2991906112ac565b610d34906001611264565b81518110610d4457610d4461121f565b602002602001018181525050858181518110610d6257610d6261121f565b60209081029190910181015151015182610d7d8360066112ac565b610d88906002611264565b81518110610d9857610d9861121f565b602002602001018181525050858181518110610db657610db661121f565b6020908102919091010151515182610dcf8360066112ac565b610dda906003611264565b81518110610dea57610dea61121f565b602002602001018181525050858181518110610e0857610e0861121f565b602002602001015160200151600160028110610e2657610e2661121f565b602002015182610e378360066112ac565b610e42906004611264565b81518110610e5257610e5261121f565b602002602001018181525050858181518110610e7057610e7061121f565b602002602001015160200151600060028110610e8e57610e8e61121f565b602002015182610e9f8360066112ac565b610eaa906005611264565b81518110610eba57610eba61121f565b602090810291909101015280610ecf8161124b565b915050610ca2565b50610ee0610fca565b6000602082602086026020860160086107d05a03fa90508080610eff57fe5b5080610f0a57600080fd5b505115159695505050505050565b6040805160e08101909152600060a0820181815260c0830191909152815260208101610f42610fa5565b8152602001610f4f610fa5565b8152602001610f5c610fa5565b8152602001606081525090565b60405180606001604052806003906020820280368337509192915050565b60405180608001604052806004906020820280368337509192915050565b6040518060400160405280610fb8610fe8565b8152602001610fc5610fe8565b905290565b60405180602001604052806001906020820280368337509192915050565b60405180604001604052806002906020820280368337509192915050565b634e487b7160e01b600052604160045260246000fd5b6040516060810167ffffffffffffffff8111828210171561103f5761103f611006565b60405290565b6040805190810167ffffffffffffffff8111828210171561103f5761103f611006565b60006040828403121561107a57600080fd5b6040516040810181811067ffffffffffffffff8211171561109d5761109d611006565b604052823581526020928301359281019290925250919050565b600060405161010080820182811067ffffffffffffffff821117156110de576110de611006565b60405290915081908301848111156110f557600080fd5b835b8181101561110f5780358352602092830192016110f7565b50505092915050565b600082601f83011261112957600080fd5b611131611045565b80604084018581111561114357600080fd5b845b8181101561115d578035845260209384019301611145565b509095945050505050565b60008082840361020081121561117d57600080fd5b6101008082121561118d57600080fd5b61119561101c565b61119f8787611068565b81526080603f19840112156111b357600080fd5b6111bb611045565b92506111ca8760408801611118565b83526111d98760808801611118565b60208401528260208201526111f18760c08801611068565b6040820152935061011f8501861361120857600080fd5b611214868287016110b7565b925050509250929050565b634e487b7160e01b600052603260045260246000fd5b634e487b7160e01b600052601160045260246000fd5b60006001820161125d5761125d611235565b5060010190565b808201808211156100f3576100f3611235565b60008261129457634e487b7160e01b600052601260045260246000fd5b500690565b818103818111156100f3576100f3611235565b80820281158282048414176100f3576100f361123556fea2646970667358221220f643a0c5b85a938f1c81ea5fb39dbbc756a19db7efd21f35ce79ae4f1399135364736f6c63430008110033",
  "linkReferences": {},
  "deployedLinkReferences": {}
}