{
  "_format": "hh-sol-artifact-1",
  "contractName": "Verifier",
  "sourceName": "contracts/verifier.sol",
  "abi": [
    {
      "inputs": [
        {
          "components": [
            {
              "components": [
                {
                  "internalType": "uint256",
                  "name": "X",
                  "type": "uint256"
                },
                {
                  "internalType": "uint256",
                  "name": "Y",
                  "type": "uint256"
                }
              ],
              "internalType": "struct Pairing.G1Point",
              "name": "a",
              "type": "tuple"
            },
            {
              "components": [
                {
                  "internalType": "uint256[2]",
                  "name": "X",
                  "type": "uint256[2]"
                },
                {
                  "internalType": "uint256[2]",
                  "name": "Y",
                  "type": "uint256[2]"
                }
              ],
              "internalType": "struct Pairing.G2Point",
              "name": "b",
              "type": "tuple"
            },
            {
              "components": [
                {
                  "internalType": "uint256",
                  "name": "X",
                  "type": "uint256"
                },
                {
                  "internalType": "uint256",
                  "name": "Y",
                  "type": "uint256"
                }
              ],
              "internalType": "struct Pairing.G1Point",
              "name": "c",
              "type": "tuple"
            }
          ],
          "internalType": "struct Verifier.Proof",
          "name": "proof",
          "type": "tuple"
        },
        {
          "internalType": "uint256[8]",
          "name": "input",
          "type": "uint256[8]"
        }
      ],
      "name": "verifyTx",
      "outputs": [
        {
          "internalType": "bool",
          "name": "r",
          "type": "bool"
        }
      ],
      "stateMutability": "view",
      "type": "function"
    }
  ],
  "bytecode": "0x608060405234801561001057600080fd5b506112f8806100206000396000f3fe608060405234801561001057600080fd5b506004361061002b5760003560e01c8063f1942cd114610030575b600080fd5b61004361003e366004611167565b610057565b604051901515815260200160405180910390f35b6040805160088082526101208201909252600091829190602082016101008036833701905050905060005b60088110156100d15783816008811061009d5761009d61121e565b60200201518282815181106100b4576100b461121e565b6020908102919091010152806100c98161124a565b915050610082565b506100dc81856100f9565b6000036100ed5760019150506100f3565b60009150505b92915050565b60007f30644e72e131a029b85045b68181585d2833e84879b9709143e1f593f00000018161012561027c565b90508060800151518551600161013b9190611263565b1461014557600080fd5b604080518082019091526000808252602082018190525b86518110156101f357838782815181106101785761017861121e565b60200260200101511061018a57600080fd5b6101df826101da85608001518460016101a39190611263565b815181106101b3576101b361121e565b60200260200101518a85815181106101cd576101cd61121e565b6020026020010151610958565b6109b6565b9150806101eb8161124a565b91505061015c565b5061021c81836080015160008151811061020f5761020f61121e565b60200260200101516109b6565b90506102608560000151866020015161023484610a0c565b85604001516102468a60400151610a0c565b6060880151885161025690610a0c565b8960200151610aab565b61027057600193505050506100f3565b50600095945050505050565b610284610f17565b6040805180820182527f1c5af36d331687dc79fba33c517607bdfd571f897b3ea0de210ac165ca58edd581527f0d1022bf1fb5f13154900f468b6a9efb5c27ed472fdcd9d0967020caf2f46e786020808301919091529083528151608080820184527f2ba860f1368f4e7619d85ad78083f8cbe92a8324ce5dde342baf265834c900fb8285019081527f16b187ce9bbffaecdb14e983abf6a070136ccea3dfb67a6a02c1b6868d86d483606080850191909152908352845180860186527f17235827e2c64a5166f740a01639ac5eeeea3a33db066b1ea8b53971751d7c2a81527f1eea14511f7447ce3f6352d2f6c5dae35224fdfd407abc29b9a304a577fdf4b9818601528385015285840192909252835180820185527f1ac18af2d806b63da83a48e231979720778ce771d4a3f3173247136a9af084618186019081527f2c55f05c4a5d3c6ec7b8effa413fba80646b915da32f8832c4ef0073cdabd8fa828501528152845180860186527f15d1fa1816b217f1419091e592e131873620f9851ca5db7ba7a881bee312fc2081527f2ed0f2802a9acb051ccad409736979a565c609bb51494b3c9ca133bdf776ea1c818601528185015285850152835190810184527ef954da56feeb5cf59dc7f41df694121081c3253da821f296401567647c78388185019081527f2046b2bdc19eef20fb9dbea5d4902a80d6c385b886664d255aa0749084e0f499828401528152835180850185527f0950b5dce4535435c3a4048ecbe608f473ce96acdb19194edc0a6129ba01a6a081527f2e74b0c5f0df25de6d1867c10a891effaa8917a47e7a54058d89cb879c495eda818501528184015290840152815160098082526101408201909352919082015b60408051808201909152600080825260208201528152602001906001900390816104ff57505060808201908152604080518082019091527f124a2b160cd22bfb5a3e1d695f6db1209ef45ad289cfcbb057dcdcfdf931bee681527f211adaf687c6626b599a73f94310be3d96ad22ac3a80ea1aefd7a1f1bc8cb52c6020820152905180516000906105925761059261121e565b602002602001018190525060405180604001604052807f193095be7226162ae86aea9b1e67fd42fdd6fa7108da6927502df6316da06c6181526020017f0c845060467df15ecc8c6a8c443d03f034e5c0a6fbcca0185348dd004d2bfd6681525081608001516001815181106106095761060961121e565b602002602001018190525060405180604001604052807f0a0b560ab24189f67017fccf208fe7e0f9d45a0fb20150299d374be1d6e5ed1981526020017f028cf62f095f0459777e549e48b3b644151c8300db2ed63f772ecd57f98c0bb081525081608001516002815181106106805761068061121e565b602002602001018190525060405180604001604052807f2ddceceb4c4978fe36e7cf5690c7ef7c073208cb6027539453cedd5114c5896481526020017f18e8a0f323b2c9d56f7e16a71687eadbfd1e8b6c545e318de90c3c0f1513fafa81525081608001516003815181106106f7576106f761121e565b602002602001018190525060405180604001604052807f15ad20e6ee3e5e803c330da71382ad533ebf5f4b8b93ec59cd3dedb46947882081526020017f11ec7525f1a98d0e1b707174fd6e5345eac2c93489c6f253bad554ccfa79c264815250816080015160048151811061076e5761076e61121e565b602002602001018190525060405180604001604052807f172c76edbd9e34fc1ef1ecd279c3d7b14c16a852a335e63977932f5fa345cae481526020017f0d8cd848f609b11adc7339851da038ccbe43042eedecac3f3f7fb476d9e478a381525081608001516005815181106107e5576107e561121e565b602002602001018190525060405180604001604052807f2cf94b463c3d709fc68a20b8b4b01d18400e59b6002f9ac57fe2a73d6ddf7be381526020017f032b7b6e4c171d65d0b558d22c59a7f01c4f34735540d22466dbcdcda707f668815250816080015160068151811061085c5761085c61121e565b602002602001018190525060405180604001604052807f0c52882fc77672ab6edfd8a8120f963da36a7aee75606a47669d3edb0318fad981526020017f0c36dbb01e11deaa6700e3200abfb75ea60cc90baa2ffde093bb172d9c8b133281525081608001516007815181106108d3576108d361121e565b602002602001018190525060405180604001604052807f22e6ca2278821b58873078803b9b6cee71b6019d7a9e5eb0efc1ef52b97014fa81526020017f2ee76de1cd2c56754226f03e1111a3ffd4e8c08944990ff1e9cb2447a41148bb815250816080015160088151811061094a5761094a61121e565b602002602001018190525090565b6040805180820190915260008082526020820152610974610f68565b835181526020808501519082015260408101839052600060608360808460076107d05a03fa905080806109a357fe5b50806109ae57600080fd5b505092915050565b60408051808201909152600080825260208201526109d2610f86565b8351815260208085015181830152835160408301528301516060808301919091526000908360c08460066107d05a03fa905080806109a357fe5b604080518082019091526000808252602082015281517f30644e72e131a029b85045b68181585d97816a916871ca8d3c208c16d87cfd4790158015610a5357506020830151155b15610a735750506040805180820190915260008082526020820152919050565b604051806040016040528084600001518152602001828560200151610a989190611276565b610aa29084611298565b90529392505050565b60408051600480825260a08201909252600091829190816020015b6040805180820190915260008082526020820152815260200190600190039081610ac657505060408051600480825260a0820190925291925060009190602082015b610b10610fa4565b815260200190600190039081610b085790505090508a82600081518110610b3957610b3961121e565b60200260200101819052508882600181518110610b5857610b5861121e565b60200260200101819052508682600281518110610b7757610b7761121e565b60200260200101819052508482600381518110610b9657610b9661121e565b60200260200101819052508981600081518110610bb557610bb561121e565b60200260200101819052508781600181518110610bd457610bd461121e565b60200260200101819052508581600281518110610bf357610bf361121e565b60200260200101819052508381600381518110610c1257610c1261121e565b6020026020010181905250610c278282610c36565b9b9a5050505050505050505050565b60008151835114610c4657600080fd5b82516000610c558260066112ab565b905060008167ffffffffffffffff811115610c7257610c72611005565b604051908082528060200260200182016040528015610c9b578160200160208202803683370190505b50905060005b83811015610ed657868181518110610cbb57610cbb61121e565b60200260200101516000015182826006610cd591906112ab565b610ce0906000611263565b81518110610cf057610cf061121e565b602002602001018181525050868181518110610d0e57610d0e61121e565b60200260200101516020015182826006610d2891906112ab565b610d33906001611263565b81518110610d4357610d4361121e565b602002602001018181525050858181518110610d6157610d6161121e565b60209081029190910181015151015182610d7c8360066112ab565b610d87906002611263565b81518110610d9757610d9761121e565b602002602001018181525050858181518110610db557610db561121e565b6020908102919091010151515182610dce8360066112ab565b610dd9906003611263565b81518110610de957610de961121e565b602002602001018181525050858181518110610e0757610e0761121e565b602002602001015160200151600160028110610e2557610e2561121e565b602002015182610e368360066112ab565b610e41906004611263565b81518110610e5157610e5161121e565b602002602001018181525050858181518110610e6f57610e6f61121e565b602002602001015160200151600060028110610e8d57610e8d61121e565b602002015182610e9e8360066112ab565b610ea9906005611263565b81518110610eb957610eb961121e565b602090810291909101015280610ece8161124a565b915050610ca1565b50610edf610fc9565b6000602082602086026020860160086107d05a03fa90508080610efe57fe5b5080610f0957600080fd5b505115159695505050505050565b6040805160e08101909152600060a0820181815260c0830191909152815260208101610f41610fa4565b8152602001610f4e610fa4565b8152602001610f5b610fa4565b8152602001606081525090565b60405180606001604052806003906020820280368337509192915050565b60405180608001604052806004906020820280368337509192915050565b6040518060400160405280610fb7610fe7565b8152602001610fc4610fe7565b905290565b60405180602001604052806001906020820280368337509192915050565b60405180604001604052806002906020820280368337509192915050565b634e487b7160e01b600052604160045260246000fd5b6040516060810167ffffffffffffffff8111828210171561103e5761103e611005565b60405290565b6040805190810167ffffffffffffffff8111828210171561103e5761103e611005565b60006040828403121561107957600080fd5b6040516040810181811067ffffffffffffffff8211171561109c5761109c611005565b604052823581526020928301359281019290925250919050565b600060405161010080820182811067ffffffffffffffff821117156110dd576110dd611005565b60405290915081908301848111156110f457600080fd5b835b8181101561110e5780358352602092830192016110f6565b50505092915050565b600082601f83011261112857600080fd5b611130611044565b80604084018581111561114257600080fd5b845b8181101561115c578035845260209384019301611144565b509095945050505050565b60008082840361020081121561117c57600080fd5b6101008082121561118c57600080fd5b61119461101b565b61119e8787611067565b81526080603f19840112156111b257600080fd5b6111ba611044565b92506111c98760408801611117565b83526111d88760808801611117565b60208401528260208201526111f08760c08801611067565b6040820152935061011f8501861361120757600080fd5b611213868287016110b6565b925050509250929050565b634e487b7160e01b600052603260045260246000fd5b634e487b7160e01b600052601160045260246000fd5b60006001820161125c5761125c611234565b5060010190565b808201808211156100f3576100f3611234565b60008261129357634e487b7160e01b600052601260045260246000fd5b500690565b818103818111156100f3576100f3611234565b80820281158282048414176100f3576100f361123456fea264697066735822122021b1a0e3d15ad98fe0921ce07f4306feff60be01ac4c8f8e76e2e994a58fd66664736f6c63430008110033",
  "linkReferences": {},
  "deployedLinkReferences": {}
}