{
  "_format": "hh-sol-artifact-1",
  "contractName": "Quest",
  "sourceName": "contracts/quest.sol",
  "abi": [
    {
      "inputs": [
        {
          "internalType": "address",
          "name": "_NFTmembership",
          "type": "address"
        },
        {
          "internalType": "address",
          "name": "_verifier",
          "type": "address"
        }
      ],
      "stateMutability": "nonpayable",
      "type": "constructor"
    },
    {
      "inputs": [],
      "name": "NFTmembership",
      "outputs": [
        {
          "internalType": "address",
          "name": "",
          "type": "address"
        }
      ],
      "stateMutability": "view",
      "type": "function"
    },
    {
      "inputs": [
        {
          "internalType": "address",
          "name": "recipient",
          "type": "address"
        },
        {
          "components": [
            {
              "components": [
                {
                  "internalType": "uint256",
                  "name": "X",
                  "type": "uint256"
                },
                {
                  "internalType": "uint256",
                  "name": "Y",
                  "type": "uint256"
                }
              ],
              "internalType": "struct Pairing.G1Point",
              "name": "a",
              "type": "tuple"
            },
            {
              "components": [
                {
                  "internalType": "uint256[2]",
                  "name": "X",
                  "type": "uint256[2]"
                },
                {
                  "internalType": "uint256[2]",
                  "name": "Y",
                  "type": "uint256[2]"
                }
              ],
              "internalType": "struct Pairing.G2Point",
              "name": "b",
              "type": "tuple"
            },
            {
              "components": [
                {
                  "internalType": "uint256",
                  "name": "X",
                  "type": "uint256"
                },
                {
                  "internalType": "uint256",
                  "name": "Y",
                  "type": "uint256"
                }
              ],
              "internalType": "struct Pairing.G1Point",
              "name": "c",
              "type": "tuple"
            }
          ],
          "internalType": "struct Verifier.Proof",
          "name": "proof",
          "type": "tuple"
        },
        {
          "internalType": "uint256[8]",
          "name": "input",
          "type": "uint256[8]"
        }
      ],
      "name": "issueMembership",
      "outputs": [],
      "stateMutability": "nonpayable",
      "type": "function"
    },
    {
      "inputs": [],
      "name": "verifier",
      "outputs": [
        {
          "internalType": "address",
          "name": "",
          "type": "address"
        }
      ],
      "stateMutability": "view",
      "type": "function"
    }
  ],
  "bytecode": "0x60c060405234801561001057600080fd5b506040516104b03803806104b083398101604081905261002f91610062565b6001600160a01b039081166080521660a052610095565b80516001600160a01b038116811461005d57600080fd5b919050565b6000806040838503121561007557600080fd5b61007e83610046565b915061008c60208401610046565b90509250929050565b60805160a0516103ea6100c660003960008181609b0152610236015260008181604b015261010f01526103ea6000f3fe608060405234801561001057600080fd5b50600436106100415760003560e01c80632b7ac3f3146100465780639672a07c14610096578063c2b864c1146100bd575b600080fd5b61006d7f000000000000000000000000000000000000000000000000000000000000000081565b60405173ffffffffffffffffffffffffffffffffffffffff909116815260200160405180910390f35b61006d7f000000000000000000000000000000000000000000000000000000000000000081565b6100d06100cb3660046102a9565b6100d2565b005b6040517ff1942cd100000000000000000000000000000000000000000000000000000000815273ffffffffffffffffffffffffffffffffffffffff7f0000000000000000000000000000000000000000000000000000000000000000169063f1942cd190610146908590859060040161031f565b602060405180830381865afa158015610163573d6000803e3d6000fd5b505050506040513d601f19601f820116820180604052508101906101879190610372565b6101f1576040517f08c379a000000000000000000000000000000000000000000000000000000000815260206004820181905260248201527f62616420736f6c7574696f6e2c2063616e6e6f742062652061206d656d626572604482015260640160405180910390fd5b6040517f54ba0f2700000000000000000000000000000000000000000000000000000000815273ffffffffffffffffffffffffffffffffffffffff84811660048301527f000000000000000000000000000000000000000000000000000000000000000016906354ba0f27906024016020604051808303816000875af115801561027f573d6000803e3d6000fd5b505050506040513d601f19601f820116820180604052508101906102a3919061039b565b50505050565b6000806000838503610220808212156102c157600080fd5b853573ffffffffffffffffffffffffffffffffffffffff811681146102e557600080fd5b9450610100601f19830112156102fa57600080fd5b60208601935086818701111561030f57600080fd5b5050610120840190509250925092565b8235815260208084013590820152610200810160408085016040840137604060808501608084013761036160c0830160c0860180358252602090810135910152565b610100808482850137509392505050565b60006020828403121561038457600080fd5b8151801515811461039457600080fd5b9392505050565b6000602082840312156103ad57600080fd5b505191905056fea264697066735822122013edf5a2b91650953c5c7973d77d8d7de039fd8d989c5ae9a61e36a625e6bf2964736f6c63430008110033",
  "linkReferences": {},
  "deployedLinkReferences": {}
}